{
  "contractName": "HelloWorld",
  "abi": [
    {
      "inputs": [
        {
          "internalType": "string",
          "name": "extra",
          "type": "string"
        }
      ],
      "name": "sayHello",
      "outputs": [
        {
          "internalType": "string",
          "name": "",
          "type": "string"
        }
      ],
      "stateMutability": "pure",
      "type": "function",
      "constant": true
    }
  ],
  "bytecode": "0x608060405234801561001057600080fd5b506102a3806100206000396000f3fe608060405234801561001057600080fd5b506004361061002b5760003560e01c8063c3a9b1c514610030575b600080fd5b61004a600480360381019061004591906100d2565b610060565b604051610057919061014c565b60405180910390f35b6060819050919050565b600061007d6100788461019f565b61016e565b90508281526020810184848401111561009557600080fd5b6100a08482856101eb565b509392505050565b600082601f8301126100b957600080fd5b81356100c984826020860161006a565b91505092915050565b6000602082840312156100e457600080fd5b600082013567ffffffffffffffff8111156100fe57600080fd5b61010a848285016100a8565b91505092915050565b600061011e826101cf565b61012881856101da565b93506101388185602086016101fa565b6101418161025c565b840191505092915050565b600060208201905081810360008301526101668184610113565b905092915050565b6000604051905081810181811067ffffffffffffffff821117156101955761019461022d565b5b8060405250919050565b600067ffffffffffffffff8211156101ba576101b961022d565b5b601f19601f8301169050602081019050919050565b600081519050919050565b600082825260208201905092915050565b82818337600083830152505050565b60005b838110156102185780820151818401526020810190506101fd565b83811115610227576000848401525b50505050565b7f4e487b7100000000000000000000000000000000000000000000000000000000600052604160045260246000fd5b6000601f19601f830116905091905056fea264697066735822122030ac54819fb81e4dd58da6c3e55255735271b60b37a761466d66a5cbb162978464736f6c63430008000033",
  "immutableReferences": {},
  "source": "pragma solidity >= 0.8.0;\n\ncontract HelloWorld {\n    function sayHello(string memory extra) public pure returns (string memory) {\n        return extra;\n    }\n}\n",
  "sourcePath": "/Users/odenpetersen/Documents/Programming/blockchain-supply-chain/contracts/test/HelloWorld.sol",
  "compiler": {
    "name": "solc",
    "version": "0.8.0+commit.c7dfd78e.Emscripten.clang"
  },
  "schemaVersion": "3.4.14",
  "updatedAt": "2023-07-22T05:37:32.537Z",
  "networkType": "ethereum",
  "devdoc": {
    "kind": "dev",
    "methods": {},
    "version": 1
  },
  "userdoc": {
    "kind": "user",
    "methods": {},
    "version": 1
  }
}