{
  "contractName": "Oracle",
  "abi": [
    {
      "inputs": [],
      "stateMutability": "nonpayable",
      "type": "constructor"
    },
    {
      "inputs": [
        {
          "internalType": "address",
          "name": "contractAddress",
          "type": "address"
        }
      ],
      "name": "hasPaid",
      "outputs": [],
      "stateMutability": "nonpayable",
      "type": "function"
    },
    {
      "inputs": [
        {
          "internalType": "address",
          "name": "contractAddress",
          "type": "address"
        }
      ],
      "name": "isPaid",
      "outputs": [
        {
          "internalType": "bool",
          "name": "",
          "type": "bool"
        }
      ],
      "stateMutability": "view",
      "type": "function"
    }
  ],
  "bytecode": "0x608060405234801561000f575f80fd5b50335f806101000a81548173ffffffffffffffffffffffffffffffffffffffff021916908373ffffffffffffffffffffffffffffffffffffffff16021790555061034a8061005c5f395ff3fe608060405234801561000f575f80fd5b5060043610610034575f3560e01c80636ded82f814610038578063fbf47a9a14610068575b5f80fd5b610052600480360381019061004d9190610218565b610084565b60405161005f919061025d565b60405180910390f35b610082600480360381019061007d9190610218565b6100d6565b005b5f60015f8373ffffffffffffffffffffffffffffffffffffffff1673ffffffffffffffffffffffffffffffffffffffff1681526020019081526020015f205f9054906101000a900460ff169050919050565b5f8054906101000a900473ffffffffffffffffffffffffffffffffffffffff1673ffffffffffffffffffffffffffffffffffffffff163373ffffffffffffffffffffffffffffffffffffffff1614610163576040517f08c379a000000000000000000000000000000000000000000000000000000000815260040161015a906102f6565b60405180910390fd5b6001805f8373ffffffffffffffffffffffffffffffffffffffff1673ffffffffffffffffffffffffffffffffffffffff1681526020019081526020015f205f6101000a81548160ff02191690831515021790555050565b5f80fd5b5f73ffffffffffffffffffffffffffffffffffffffff82169050919050565b5f6101e7826101be565b9050919050565b6101f7816101dd565b8114610201575f80fd5b50565b5f81359050610212816101ee565b92915050565b5f6020828403121561022d5761022c6101ba565b5b5f61023a84828501610204565b91505092915050565b5f8115159050919050565b61025781610243565b82525050565b5f6020820190506102705f83018461024e565b92915050565b5f82825260208201905092915050565b7f43616e206f6e6c7920626520657865637574656420627920746865206f7261635f8201527f6c65206d616e6167657200000000000000000000000000000000000000000000602082015250565b5f6102e0602a83610276565b91506102eb82610286565b604082019050919050565b5f6020820190508181035f83015261030d816102d4565b905091905056fea2646970667358221220dbf5a3f6b049a62779adcab7b5d2bdc5a0dee31d7b78a436180e8fb3813c631664736f6c63430008150033",
  "immutableReferences": {},
  "source": "// SPDX-License-Identifier: UNLICENSED\n\npragma solidity ^0.8.0;\n\n/// @title\n/// @author\n\ncontract Oracle {\n    address manager;\n    mapping(address => bool) contractsPaid;\n\n    constructor() {\n        manager = msg.sender;\n    }\n\n    function hasPaid(address contractAddress) external onlyManager {\n        contractsPaid[contractAddress] = true;\n    }\n\n    function isPaid(address contractAddress) external view returns (bool) {\n        return contractsPaid[contractAddress];\n    }\n\n    /**\n     * @notice Only the manager can do\n     */\n    modifier onlyManager() {\n        require(\n            msg.sender == manager,\n            \"Can only be executed by the oracle manager\"\n        );\n        _;\n    }\n}\n",
  "sourcePath": "/Users/odenpetersen/Documents/Programming/blockchain-supply-chain/contracts/Oracle.sol",
  "compiler": {
    "name": "solc",
    "version": "0.8.21+commit.d9974bed.Emscripten.clang"
  },
  "schemaVersion": "3.4.14",
  "updatedAt": "2023-07-22T14:53:06.767Z",
  "devdoc": {
    "kind": "dev",
    "methods": {},
    "title": "@author",
    "version": 1
  },
  "userdoc": {
    "kind": "user",
    "methods": {},
    "version": 1
  }
}