{
  "contractName": "Oracle",
  "abi": [
    {
      "inputs": [],
      "stateMutability": "nonpayable",
      "type": "constructor"
    },
    {
      "inputs": [
        {
          "internalType": "address",
          "name": "contractAddress",
          "type": "address"
        },
        {
          "internalType": "bool",
          "name": "_isPaid",
          "type": "bool"
        }
      ],
      "name": "setPaid",
      "outputs": [],
      "stateMutability": "nonpayable",
      "type": "function"
    },
    {
      "inputs": [
        {
          "internalType": "address",
          "name": "contractAddress",
          "type": "address"
        }
      ],
      "name": "isPaid",
      "outputs": [
        {
          "internalType": "bool",
          "name": "",
          "type": "bool"
        }
      ],
      "stateMutability": "view",
      "type": "function"
    }
  ],
  "bytecode": "0x608060405234801561001057600080fd5b50336000806101000a81548173ffffffffffffffffffffffffffffffffffffffff021916908373ffffffffffffffffffffffffffffffffffffffff1602179055506103d1806100606000396000f3fe608060405234801561001057600080fd5b50600436106100365760003560e01c80636ded82f81461003b578063770b6bd51461006b575b600080fd5b61005560048036038101906100509190610229565b610087565b6040516100629190610271565b60405180910390f35b610085600480360381019061008091906102b8565b6100dd565b005b6000600160008373ffffffffffffffffffffffffffffffffffffffff1673ffffffffffffffffffffffffffffffffffffffff16815260200190815260200160002060009054906101000a900460ff169050919050565b60008054906101000a900473ffffffffffffffffffffffffffffffffffffffff1673ffffffffffffffffffffffffffffffffffffffff163373ffffffffffffffffffffffffffffffffffffffff161461016b576040517f08c379a00000000000000000000000000000000000000000000000000000000081526004016101629061037b565b60405180910390fd5b80600160008473ffffffffffffffffffffffffffffffffffffffff1673ffffffffffffffffffffffffffffffffffffffff16815260200190815260200160002060006101000a81548160ff0219169083151502179055505050565b600080fd5b600073ffffffffffffffffffffffffffffffffffffffff82169050919050565b60006101f6826101cb565b9050919050565b610206816101eb565b811461021157600080fd5b50565b600081359050610223816101fd565b92915050565b60006020828403121561023f5761023e6101c6565b5b600061024d84828501610214565b91505092915050565b60008115159050919050565b61026b81610256565b82525050565b60006020820190506102866000830184610262565b92915050565b61029581610256565b81146102a057600080fd5b50565b6000813590506102b28161028c565b92915050565b600080604083850312156102cf576102ce6101c6565b5b60006102dd85828601610214565b92505060206102ee858286016102a3565b9150509250929050565b600082825260208201905092915050565b7f43616e206f6e6c7920626520657865637574656420627920746865206f72616360008201527f6c65206d616e6167657200000000000000000000000000000000000000000000602082015250565b6000610365602a836102f8565b915061037082610309565b604082019050919050565b6000602082019050818103600083015261039481610358565b905091905056fea26469706673582212205d9ac50ee534bb27363b4b9ea40bab33867db1ec65d83f643eea4cd9c20b6df464736f6c63430008130033",
  "immutableReferences": {},
  "source": "// SPDX-License-Identifier: UNLICENSED\n\npragma solidity 0.8.19;\n\nimport \"./interfaces/IOracle.sol\";\n\n/// @title An oracle contract where the oracle manager could update the paid status of the order\n/// @author Amos Tan, Oden Peterson (COMP6452 2023T2 Group 22)\n/// @notice This contract is used to update the paid status of the order\ncontract Oracle is IOracle {\n    address manager; // the manager of the oracle / owner of this contract\n    mapping(address => bool) contractsPaid; // mapping of contracts to paid status\n\n    /// @notice modifier to check if the caller is the manager\n    modifier onlyManager() {\n        require(\n            msg.sender == manager,\n            \"Can only be executed by the oracle manager\"\n        );\n        _;\n    }\n\n    /// @notice initialization of the oracle to set the owner of this contract as manager\n    constructor() {\n        manager = msg.sender;\n    }\n\n    /// @notice set the paid status of the order (only manager can do this)\n    /// @param contractAddress the address of the order contract\n    /// @param _isPaid the paid status of the order\n    function setPaid(\n        address contractAddress,\n        bool _isPaid\n    ) external onlyManager {\n        contractsPaid[contractAddress] = _isPaid;\n    }\n\n    /// @notice get the paid status of the order\n    /// @param contractAddress the address of the order contract\n    /// @return the paid status of the order\n    function isPaid(address contractAddress) external view returns (bool) {\n        return contractsPaid[contractAddress];\n    }\n}\n",
  "sourcePath": "/Users/odenpetersen/Documents/Programming/blockchain-supply-chain/src/Oracle.sol",
  "compiler": {
    "name": "solc",
    "version": "0.8.19+commit.7dd6d404.Emscripten.clang"
  },
  "schemaVersion": "3.4.14",
  "updatedAt": "2023-07-25T00:33:59.627Z",
  "devdoc": {
    "author": "Amos Tan, Oden Peterson (COMP6452 2023T2 Group 22)",
    "kind": "dev",
    "methods": {
      "isPaid(address)": {
        "params": {
          "contractAddress": "the address of the order contract"
        },
        "returns": {
          "_0": "the paid status of the order"
        }
      },
      "setPaid(address,bool)": {
        "params": {
          "_isPaid": "the paid status of the order",
          "contractAddress": "the address of the order contract"
        }
      }
    },
    "title": "An oracle contract where the oracle manager could update the paid status of the order",
    "version": 1
  },
  "userdoc": {
    "kind": "user",
    "methods": {
      "constructor": {
        "notice": "initialization of the oracle to set the owner of this contract as manager"
      },
      "isPaid(address)": {
        "notice": "get the paid status of the order"
      },
      "setPaid(address,bool)": {
        "notice": "set the paid status of the order (only manager can do this)"
      }
    },
    "notice": "This contract is used to update the paid status of the order",
    "version": 1
  }
}