{
  "contractName": "Order",
  "abi": [
    {
      "inputs": [
        {
          "internalType": "address",
          "name": "_product",
          "type": "address"
        },
        {
          "internalType": "address",
          "name": "_seller",
          "type": "address"
        },
        {
          "internalType": "address",
          "name": "_shipper",
          "type": "address"
        },
        {
          "internalType": "address",
          "name": "_oracle",
          "type": "address"
        },
        {
          "internalType": "string[]",
          "name": "_destinations",
          "type": "string[]"
        },
        {
          "internalType": "address[]",
          "name": "_intermediaries",
          "type": "address[]"
        },
        {
          "internalType": "uint256[]",
          "name": "_deliveryDueTimes",
          "type": "uint256[]"
        }
      ],
      "stateMutability": "nonpayable",
      "type": "constructor"
    },
    {
      "inputs": [],
      "name": "DestinationsLengthAndDeliveryDueTimesLengthNotEqual",
      "type": "error"
    },
    {
      "inputs": [],
      "name": "DestinationsLengthAndIntermediariesLengthNotEqual",
      "type": "error"
    },
    {
      "inputs": [],
      "name": "IncorrectOrderStatusState",
      "type": "error"
    },
    {
      "inputs": [],
      "name": "IncorrectTimestamp",
      "type": "error"
    },
    {
      "inputs": [],
      "name": "OrderAlreadyDelivered",
      "type": "error"
    },
    {
      "inputs": [],
      "name": "OrderNotCreatedState",
      "type": "error"
    },
    {
      "inputs": [],
      "name": "OrderNotDelivered",
      "type": "error"
    },
    {
      "inputs": [],
      "name": "OrderNotPaidState",
      "type": "error"
    },
    {
      "inputs": [],
      "name": "OrderNotVerifiedState",
      "type": "error"
    },
    {
      "inputs": [],
      "name": "UnauthorizedAccess",
      "type": "error"
    },
    {
      "anonymous": false,
      "inputs": [
        {
          "indexed": false,
          "internalType": "uint256",
          "name": "timestamp",
          "type": "uint256"
        },
        {
          "indexed": false,
          "internalType": "string",
          "name": "place",
          "type": "string"
        }
      ],
      "name": "ShipmentUpdated",
      "type": "event"
    },
    {
      "inputs": [
        {
          "internalType": "bool",
          "name": "inStock",
          "type": "bool"
        }
      ],
      "name": "verifyOrderBySeller",
      "outputs": [],
      "stateMutability": "nonpayable",
      "type": "function"
    },
    {
      "inputs": [
        {
          "internalType": "bool",
          "name": "rightDestinations",
          "type": "bool"
        }
      ],
      "name": "verifyOrderByShipper",
      "outputs": [],
      "stateMutability": "nonpayable",
      "type": "function"
    },
    {
      "inputs": [],
      "name": "isPaid",
      "outputs": [
        {
          "internalType": "bool",
          "name": "",
          "type": "bool"
        }
      ],
      "stateMutability": "nonpayable",
      "type": "function"
    },
    {
      "inputs": [
        {
          "internalType": "uint256",
          "name": "timestamp",
          "type": "uint256"
        }
      ],
      "name": "updateShipment",
      "outputs": [],
      "stateMutability": "nonpayable",
      "type": "function"
    },
    {
      "inputs": [],
      "name": "verifyReceipt",
      "outputs": [],
      "stateMutability": "nonpayable",
      "type": "function"
    },
    {
      "inputs": [],
      "name": "cancelOrder",
      "outputs": [],
      "stateMutability": "nonpayable",
      "type": "function"
    },
    {
      "inputs": [],
      "name": "getOrderStatus",
      "outputs": [
        {
          "internalType": "enum IOrder.OrderStatus",
          "name": "",
          "type": "uint8"
        }
      ],
      "stateMutability": "view",
      "type": "function"
    },
    {
      "inputs": [],
      "name": "getIsVerifiedBySeller",
      "outputs": [
        {
          "internalType": "bool",
          "name": "",
          "type": "bool"
        }
      ],
      "stateMutability": "view",
      "type": "function"
    },
    {
      "inputs": [],
      "name": "getIsVerifiedByShipper",
      "outputs": [
        {
          "internalType": "bool",
          "name": "",
          "type": "bool"
        }
      ],
      "stateMutability": "view",
      "type": "function"
    },
    {
      "inputs": [],
      "name": "getCurrentDeliveryPoint",
      "outputs": [
        {
          "internalType": "string",
          "name": "",
          "type": "string"
        }
      ],
      "stateMutability": "view",
      "type": "function"
    },
    {
      "inputs": [],
      "name": "getLastUpdatedAt",
      "outputs": [
        {
          "internalType": "uint256",
          "name": "",
          "type": "uint256"
        }
      ],
      "stateMutability": "view",
      "type": "function"
    },
    {
      "inputs": [],
      "name": "getDeliveryPoints",
      "outputs": [
        {
          "internalType": "string[]",
          "name": "",
          "type": "string[]"
        }
      ],
      "stateMutability": "view",
      "type": "function"
    },
    {
      "inputs": [],
      "name": "getIntermediaries",
      "outputs": [
        {
          "internalType": "address[]",
          "name": "",
          "type": "address[]"
        }
      ],
      "stateMutability": "view",
      "type": "function"
    },
    {
      "inputs": [],
      "name": "getDeliveryDueTimes",
      "outputs": [
        {
          "internalType": "uint256[]",
          "name": "",
          "type": "uint256[]"
        }
      ],
      "stateMutability": "view",
      "type": "function"
    },
    {
      "inputs": [],
      "name": "getDeliveryTimes",
      "outputs": [
        {
          "internalType": "uint256[]",
          "name": "",
          "type": "uint256[]"
        }
      ],
      "stateMutability": "view",
      "type": "function"
    }
  ],
  "bytecode": "0x60806040523480156200001157600080fd5b50604051620026fb380380620026fb833981810160405281019062000037919062000922565b866000806101000a81548173ffffffffffffffffffffffffffffffffffffffff021916908373ffffffffffffffffffffffffffffffffffffffff16021790555033600160006101000a81548173ffffffffffffffffffffffffffffffffffffffff021916908373ffffffffffffffffffffffffffffffffffffffff16021790555085600260006101000a81548173ffffffffffffffffffffffffffffffffffffffff021916908373ffffffffffffffffffffffffffffffffffffffff16021790555084600360006101000a81548173ffffffffffffffffffffffffffffffffffffffff021916908373ffffffffffffffffffffffffffffffffffffffff16021790555083600a60016101000a81548173ffffffffffffffffffffffffffffffffffffffff021916908373ffffffffffffffffffffffffffffffffffffffff1602179055508151835114620001b7576040517f5520e8cb00000000000000000000000000000000000000000000000000000000815260040160405180910390fd5b8051835114620001f3576040517f6e2f14b700000000000000000000000000000000000000000000000000000000815260040160405180910390fd5b82600690805190602001906200020b92919062000279565b50816007908051906020019062000224929190620002d9565b5080600890805190602001906200023d92919062000368565b506000600a60006101000a81548160ff0219169083600581111562000267576200026662000a32565b5b02179055505050505050505062000d89565b828054828255906000526020600020908101928215620002c6579160200282015b82811115620002c5578251829081620002b4919062000ca2565b50916020019190600101906200029a565b5b509050620002d59190620003ba565b5090565b82805482825590600052602060002090810192821562000355579160200282015b82811115620003545782518260006101000a81548173ffffffffffffffffffffffffffffffffffffffff021916908373ffffffffffffffffffffffffffffffffffffffff16021790555091602001919060010190620002fa565b5b509050620003649190620003e2565b5090565b828054828255906000526020600020908101928215620003a7579160200282015b82811115620003a657825182559160200191906001019062000389565b5b509050620003b69190620003e2565b5090565b5b80821115620003de5760008181620003d4919062000401565b50600101620003bb565b5090565b5b80821115620003fd576000816000905550600101620003e3565b5090565b5080546200040f9062000a9b565b6000825580601f1062000423575062000444565b601f016020900490600052602060002090810190620004439190620003e2565b5b50565b6000604051905090565b600080fd5b600080fd5b600073ffffffffffffffffffffffffffffffffffffffff82169050919050565b600062000488826200045b565b9050919050565b6200049a816200047b565b8114620004a657600080fd5b50565b600081519050620004ba816200048f565b92915050565b600080fd5b6000601f19601f8301169050919050565b7f4e487b7100000000000000000000000000000000000000000000000000000000600052604160045260246000fd5b6200051082620004c5565b810181811067ffffffffffffffff82111715620005325762000531620004d6565b5b80604052505050565b60006200054762000447565b905062000555828262000505565b919050565b600067ffffffffffffffff821115620005785762000577620004d6565b5b602082029050602081019050919050565b600080fd5b600080fd5b600067ffffffffffffffff821115620005b157620005b0620004d6565b5b620005bc82620004c5565b9050602081019050919050565b60005b83811015620005e9578082015181840152602081019050620005cc565b60008484015250505050565b60006200060c620006068462000593565b6200053b565b9050828152602081018484840111156200062b576200062a6200058e565b5b62000638848285620005c9565b509392505050565b600082601f830112620006585762000657620004c0565b5b81516200066a848260208601620005f5565b91505092915050565b60006200068a62000684846200055a565b6200053b565b90508083825260208201905060208402830185811115620006b057620006af62000589565b5b835b81811015620006fe57805167ffffffffffffffff811115620006d957620006d8620004c0565b5b808601620006e8898262000640565b85526020850194505050602081019050620006b2565b5050509392505050565b600082601f83011262000720576200071f620004c0565b5b81516200073284826020860162000673565b91505092915050565b600067ffffffffffffffff821115620007595762000758620004d6565b5b602082029050602081019050919050565b6000620007816200077b846200073b565b6200053b565b90508083825260208201905060208402830185811115620007a757620007a662000589565b5b835b81811015620007d45780620007bf8882620004a9565b845260208401935050602081019050620007a9565b5050509392505050565b600082601f830112620007f657620007f5620004c0565b5b8151620008088482602086016200076a565b91505092915050565b600067ffffffffffffffff8211156200082f576200082e620004d6565b5b602082029050602081019050919050565b6000819050919050565b620008558162000840565b81146200086157600080fd5b50565b60008151905062000875816200084a565b92915050565b6000620008926200088c8462000811565b6200053b565b90508083825260208201905060208402830185811115620008b857620008b762000589565b5b835b81811015620008e55780620008d0888262000864565b845260208401935050602081019050620008ba565b5050509392505050565b600082601f830112620009075762000906620004c0565b5b8151620009198482602086016200087b565b91505092915050565b600080600080600080600060e0888a03121562000944576200094362000451565b5b6000620009548a828b01620004a9565b9750506020620009678a828b01620004a9565b96505060406200097a8a828b01620004a9565b95505060606200098d8a828b01620004a9565b945050608088015167ffffffffffffffff811115620009b157620009b062000456565b5b620009bf8a828b0162000708565b93505060a088015167ffffffffffffffff811115620009e357620009e262000456565b5b620009f18a828b01620007de565b92505060c088015167ffffffffffffffff81111562000a155762000a1462000456565b5b62000a238a828b01620008ef565b91505092959891949750929550565b7f4e487b7100000000000000000000000000000000000000000000000000000000600052602160045260246000fd5b600081519050919050565b7f4e487b7100000000000000000000000000000000000000000000000000000000600052602260045260246000fd5b6000600282049050600182168062000ab457607f821691505b60208210810362000aca5762000ac962000a6c565b5b50919050565b60008190508160005260206000209050919050565b60006020601f8301049050919050565b600082821b905092915050565b60006008830262000b347fffffffffffffffffffffffffffffffffffffffffffffffffffffffffffffffff8262000af5565b62000b40868362000af5565b95508019841693508086168417925050509392505050565b6000819050919050565b600062000b8362000b7d62000b778462000840565b62000b58565b62000840565b9050919050565b6000819050919050565b62000b9f8362000b62565b62000bb762000bae8262000b8a565b84845462000b02565b825550505050565b600090565b62000bce62000bbf565b62000bdb81848462000b94565b505050565b5b8181101562000c035762000bf760008262000bc4565b60018101905062000be1565b5050565b601f82111562000c525762000c1c8162000ad0565b62000c278462000ae5565b8101602085101562000c37578190505b62000c4f62000c468562000ae5565b83018262000be0565b50505b505050565b600082821c905092915050565b600062000c776000198460080262000c57565b1980831691505092915050565b600062000c92838362000c64565b9150826002028217905092915050565b62000cad8262000a61565b67ffffffffffffffff81111562000cc95762000cc8620004d6565b5b62000cd5825462000a9b565b62000ce282828562000c07565b600060209050601f83116001811462000d1a576000841562000d05578287015190505b62000d11858262000c84565b86555062000d81565b601f19841662000d2a8662000ad0565b60005b8281101562000d545784890151825560018201915060208501945060208101905062000d2d565b8683101562000d74578489015162000d70601f89168262000c64565b8355505b6001600288020188555050505b505050505050565b6119628062000d996000396000f3fe608060405234801561001057600080fd5b50600436106100f55760003560e01c8063754fdd9a11610097578063b1bc27b011610066578063b1bc27b014610218578063bdcf8c7714610236578063d81d26ae14610254578063f912ab8214610272576100f5565b8063754fdd9a146101b65780638954b3bf146101c05780639a895420146101dc5780639b923053146101fa576100f5565b806324abb247116100d357806324abb2471461015457806341df9bb7146101725780636a8165481461018e57806374a356c714610198576100f5565b806309e3b2a4146100fa578063110f2b7c14610118578063209ebc0814610136575b600080fd5b61010261028e565b60405161010f919061125b565b60405180910390f35b610120610367565b60405161012d9190611298565b60405180910390f35b61013e61037e565b60405161014b9190611298565b60405180910390f35b61015c6104d0565b60405161016991906112cc565b60405180910390f35b61018c60048036038101906101879190611318565b6104da565b005b610196610838565b005b6101a06109a2565b6040516101ad9190611298565b60405180910390f35b6101be6109b9565b005b6101da60048036038101906101d59190611371565b610ada565b005b6101e4610c70565b6040516101f1919061148e565b60405180910390f35b610202610cfe565b60405161020f919061156e565b60405180910390f35b610220610e18565b60405161022d919061156e565b60405180910390f35b61023e610e70565b60405161024b91906115da565b60405180910390f35b61025c610f5c565b6040516102699190611673565b60405180910390f35b61028c60048036038101906102879190611371565b610f73565b005b60606006805480602002602001604051908101604052809291908181526020016000905b8282101561035e5783829060005260206000200180546102d1906116bd565b80601f01602080910402602001604051908101604052809291908181526020018280546102fd906116bd565b801561034a5780601f1061031f5761010080835404028352916020019161034a565b820191906000526020600020905b81548152906001019060200180831161032d57829003601f168201915b5050505050815260200190600101906102b2565b50505050905090565b6000600360149054906101000a900460ff16905090565b600060016005811115610394576103936115fc565b5b600a60009054906101000a900460ff1660058111156103b6576103b56115fc565b5b146103ed576040517f2a63624900000000000000000000000000000000000000000000000000000000815260040160405180910390fd5b60001515600a60019054906101000a900473ffffffffffffffffffffffffffffffffffffffff1673ffffffffffffffffffffffffffffffffffffffff16636ded82f8306040518263ffffffff1660e01b815260040161044c91906116fd565b602060405180830381865afa158015610469573d6000803e3d6000fd5b505050506040513d601f19601f8201168201806040525081019061048d919061172d565b15150361049d57600090506104cd565b6002600a60006101000a81548160ff021916908360058111156104c3576104c26115fc565b5b0217905550600190505b90565b6000600554905090565b600260058111156104ee576104ed6115fc565b5b600a60009054906101000a900460ff1660058111156105105761050f6115fc565b5b036105e9573373ffffffffffffffffffffffffffffffffffffffff1660076000815481106105415761054061175a565b5b9060005260206000200160009054906101000a900473ffffffffffffffffffffffffffffffffffffffff1673ffffffffffffffffffffffffffffffffffffffff16146105b9576040517f344fd58600000000000000000000000000000000000000000000000000000000815260040160405180910390fd5b6003600a60006101000a81548160ff021916908360058111156105df576105de6115fc565b5b021790555061077c565b600360058111156105fd576105fc6115fc565b5b600a60009054906101000a900460ff16600581111561061f5761061e6115fc565b5b0361074957600554811161065f576040517f686c69fd00000000000000000000000000000000000000000000000000000000815260040160405180910390fd5b6006805490506004541061069f576040517f458d20d000000000000000000000000000000000000000000000000000000000815260040160405180910390fd5b3373ffffffffffffffffffffffffffffffffffffffff166007600454815481106106cc576106cb61175a565b5b9060005260206000200160009054906101000a900473ffffffffffffffffffffffffffffffffffffffff1673ffffffffffffffffffffffffffffffffffffffff1614610744576040517f344fd58600000000000000000000000000000000000000000000000000000000815260040160405180910390fd5b61077b565b6040517f461e3ec300000000000000000000000000000000000000000000000000000000815260040160405180910390fd5b5b7fa45453e024ca6cdd48d1b0ea108bdf9752adf4d4ae61336d9852a5a9116b4fe0816006600454815481106107b4576107b361175a565b5b906000526020600020016040516107cc929190611822565b60405180910390a180600960003373ffffffffffffffffffffffffffffffffffffffff1673ffffffffffffffffffffffffffffffffffffffff1681526020019081526020016000208190555060046000815461082790611881565b919050819055508060058190555050565b600160009054906101000a900473ffffffffffffffffffffffffffffffffffffffff1673ffffffffffffffffffffffffffffffffffffffff163373ffffffffffffffffffffffffffffffffffffffff1614806108e15750600260009054906101000a900473ffffffffffffffffffffffffffffffffffffffff1673ffffffffffffffffffffffffffffffffffffffff163373ffffffffffffffffffffffffffffffffffffffff16145b806109395750600360009054906101000a900473ffffffffffffffffffffffffffffffffffffffff1673ffffffffffffffffffffffffffffffffffffffff163373ffffffffffffffffffffffffffffffffffffffff16145b1561096e576005600a60006101000a81548160ff02191690836005811115610964576109636115fc565b5b02179055506109a0565b6040517f344fd58600000000000000000000000000000000000000000000000000000000815260040160405180910390fd5b565b6000600360159054906101000a900460ff16905090565b600160009054906101000a900473ffffffffffffffffffffffffffffffffffffffff1673ffffffffffffffffffffffffffffffffffffffff163373ffffffffffffffffffffffffffffffffffffffff1614610a40576040517f344fd58600000000000000000000000000000000000000000000000000000000815260040160405180910390fd5b60036005811115610a5457610a536115fc565b5b600a60009054906101000a900460ff166005811115610a7657610a756115fc565b5b14610aad576040517f0a59dbe700000000000000000000000000000000000000000000000000000000815260040160405180910390fd5b6004600a60006101000a81548160ff02191690836005811115610ad357610ad26115fc565b5b0217905550565b600260009054906101000a900473ffffffffffffffffffffffffffffffffffffffff1673ffffffffffffffffffffffffffffffffffffffff163373ffffffffffffffffffffffffffffffffffffffff1614610b61576040517f344fd58600000000000000000000000000000000000000000000000000000000815260040160405180910390fd5b60006005811115610b7557610b746115fc565b5b600a60009054906101000a900460ff166005811115610b9757610b966115fc565b5b14610bce576040517f82811e6300000000000000000000000000000000000000000000000000000000815260040160405180910390fd5b6000151581151503610c0a576005600a60006101000a81548160ff02191690836005811115610c0057610bff6115fc565b5b0217905550610c6d565b6001600360146101000a81548160ff02191690831515021790555060011515600360159054906101000a900460ff16151503610c6c576001600a60006101000a81548160ff02191690836005811115610c6657610c656115fc565b5b02179055505b5b50565b60606007805480602002602001604051908101604052809291908181526020018280548015610cf457602002820191906000526020600020905b8160009054906101000a900473ffffffffffffffffffffffffffffffffffffffff1673ffffffffffffffffffffffffffffffffffffffff1681526020019060010190808311610caa575b5050505050905090565b6060600060078054905067ffffffffffffffff811115610d2157610d206118c9565b5b604051908082528060200260200182016040528015610d4f5781602001602082028036833780820191505090505b50905060005b600780549050811015610e10576009600060078381548110610d7a57610d7961175a565b5b9060005260206000200160009054906101000a900473ffffffffffffffffffffffffffffffffffffffff1673ffffffffffffffffffffffffffffffffffffffff1673ffffffffffffffffffffffffffffffffffffffff16815260200190815260200160002054828281518110610df357610df261175a565b5b60200260200101818152505080610e0990611881565b9050610d55565b508091505090565b60606008805480602002602001604051908101604052809291908181526020018280548015610e6657602002820191906000526020600020905b815481526020019060010190808311610e52575b5050505050905090565b6060600060045414610ead5760066001600454610e8d91906118f8565b81548110610e9e57610e9d61175a565b5b90600052602060002001610ece565b600660045481548110610ec357610ec261175a565b5b906000526020600020015b8054610ed9906116bd565b80601f0160208091040260200160405190810160405280929190818152602001828054610f05906116bd565b8015610f525780601f10610f2757610100808354040283529160200191610f52565b820191906000526020600020905b815481529060010190602001808311610f3557829003601f168201915b5050505050905090565b6000600a60009054906101000a900460ff16905090565b600360009054906101000a900473ffffffffffffffffffffffffffffffffffffffff1673ffffffffffffffffffffffffffffffffffffffff163373ffffffffffffffffffffffffffffffffffffffff1614610ffa576040517f344fd58600000000000000000000000000000000000000000000000000000000815260040160405180910390fd5b6000600581111561100e5761100d6115fc565b5b600a60009054906101000a900460ff1660058111156110305761102f6115fc565b5b14611067576040517f82811e6300000000000000000000000000000000000000000000000000000000815260040160405180910390fd5b60001515811515036110a3576005600a60006101000a81548160ff02191690836005811115611099576110986115fc565b5b0217905550611106565b6001600360156101000a81548160ff02191690831515021790555060011515600360149054906101000a900460ff16151503611105576001600a60006101000a81548160ff021916908360058111156110ff576110fe6115fc565b5b02179055505b5b50565b600081519050919050565b600082825260208201905092915050565b6000819050602082019050919050565b600081519050919050565b600082825260208201905092915050565b60005b8381101561116f578082015181840152602081019050611154565b60008484015250505050565b6000601f19601f8301169050919050565b600061119782611135565b6111a18185611140565b93506111b1818560208601611151565b6111ba8161117b565b840191505092915050565b60006111d1838361118c565b905092915050565b6000602082019050919050565b60006111f182611109565b6111fb8185611114565b93508360208202850161120d85611125565b8060005b85811015611249578484038952815161122a85826111c5565b9450611235836111d9565b925060208a01995050600181019050611211565b50829750879550505050505092915050565b6000602082019050818103600083015261127581846111e6565b905092915050565b60008115159050919050565b6112928161127d565b82525050565b60006020820190506112ad6000830184611289565b92915050565b6000819050919050565b6112c6816112b3565b82525050565b60006020820190506112e160008301846112bd565b92915050565b600080fd5b6112f5816112b3565b811461130057600080fd5b50565b600081359050611312816112ec565b92915050565b60006020828403121561132e5761132d6112e7565b5b600061133c84828501611303565b91505092915050565b61134e8161127d565b811461135957600080fd5b50565b60008135905061136b81611345565b92915050565b600060208284031215611387576113866112e7565b5b60006113958482850161135c565b91505092915050565b600081519050919050565b600082825260208201905092915050565b6000819050602082019050919050565b600073ffffffffffffffffffffffffffffffffffffffff82169050919050565b60006113f5826113ca565b9050919050565b611405816113ea565b82525050565b600061141783836113fc565b60208301905092915050565b6000602082019050919050565b600061143b8261139e565b61144581856113a9565b9350611450836113ba565b8060005b83811015611481578151611468888261140b565b975061147383611423565b925050600181019050611454565b5085935050505092915050565b600060208201905081810360008301526114a88184611430565b905092915050565b600081519050919050565b600082825260208201905092915050565b6000819050602082019050919050565b6114e5816112b3565b82525050565b60006114f783836114dc565b60208301905092915050565b6000602082019050919050565b600061151b826114b0565b61152581856114bb565b9350611530836114cc565b8060005b8381101561156157815161154888826114eb565b975061155383611503565b925050600181019050611534565b5085935050505092915050565b600060208201905081810360008301526115888184611510565b905092915050565b600082825260208201905092915050565b60006115ac82611135565b6115b68185611590565b93506115c6818560208601611151565b6115cf8161117b565b840191505092915050565b600060208201905081810360008301526115f481846115a1565b905092915050565b7f4e487b7100000000000000000000000000000000000000000000000000000000600052602160045260246000fd5b6006811061163c5761163b6115fc565b5b50565b600081905061164d8261162b565b919050565b600061165d8261163f565b9050919050565b61166d81611652565b82525050565b60006020820190506116886000830184611664565b92915050565b7f4e487b7100000000000000000000000000000000000000000000000000000000600052602260045260246000fd5b600060028204905060018216806116d557607f821691505b6020821081036116e8576116e761168e565b5b50919050565b6116f7816113ea565b82525050565b600060208201905061171260008301846116ee565b92915050565b60008151905061172781611345565b92915050565b600060208284031215611743576117426112e7565b5b600061175184828501611718565b91505092915050565b7f4e487b7100000000000000000000000000000000000000000000000000000000600052603260045260246000fd5b60008190508160005260206000209050919050565b600081546117ab816116bd565b6117b58186611590565b945060018216600081146117d057600181146117e657611819565b60ff198316865281151560200286019350611819565b6117ef85611789565b60005b83811015611811578154818901526001820191506020810190506117f2565b808801955050505b50505092915050565b600060408201905061183760008301856112bd565b8181036020830152611849818461179e565b90509392505050565b7f4e487b7100000000000000000000000000000000000000000000000000000000600052601160045260246000fd5b600061188c826112b3565b91507fffffffffffffffffffffffffffffffffffffffffffffffffffffffffffffffff82036118be576118bd611852565b5b600182019050919050565b7f4e487b7100000000000000000000000000000000000000000000000000000000600052604160045260246000fd5b6000611903826112b3565b915061190e836112b3565b925082820390508181111561192657611925611852565b5b9291505056fea2646970667358221220250c4ff7909ce25b0446e85237096d58192544406509219786b68ad6ea33270664736f6c63430008130033",
  "immutableReferences": {},
  "source": "// SPDX-License-Identifier: UNLICENSED\n\npragma solidity 0.8.19;\n\nimport \"./interfaces/IOrder.sol\";\nimport \"./Oracle.sol\";\n\n/// @title The order contract\n/// @author Amos Tan, Oden Peterson (COMP6452 2023T2 Group 22)\n/// @notice Here is the flow to use this contract:\n/// 1. Buyer creates an order\n/// 2. Seller and Shipper verifies the order (order does not matter)\n/// 3. Check if the order is paid by the buyer by verifying with the oracle contract\n/// 4. The intermediaries update the shipment\n/// 5. Buyer verifies the receipt\n/// Note that Buyer, Seller, Shipper can cancels the order at any time\ncontract Order is IOrder {\n    /** STATE variables */\n    address product; // address of the product that is being purchased\n    address owner; // buyer of the order\n    address seller; // seller of the product\n    address shipper; // shipper of the order, e.g. DHL, Fedex\n    bool isVerifiedBySeller; // whether the seller has verified the order\n    bool isVerifiedByShipper; // whether the shipper has verified the order\n\n    uint currentDeliveryPoint; // current delivery point (represented by index)\n    uint lastUpdatedAt; // last updated time\n\n    string[] destinations; // delivery points (London, UK, Singapore, SG, etc.)\n    address[] intermediaries; // delivery point centres' addresses (Fedex at UK, DHL at SG, etc.)\n    uint[] deliveryDueTimes; // delivery due times represented by epoch (2023-08-01T00:00:00Z, 2023-08-11T00:00:00Z, etc.)\n    mapping(address => uint) deliveryTimes; // delivery times represented by epoch\n\n    OrderStatus orderStatus; // status of the order\n    Oracle oracle; // oracle of the order which verifies whether the order is being paid\n\n    /** MODIFIERS */\n    /// @notice modifier to check if the caller is the owner aka buyer\n    modifier onlyOwner() {\n        if (msg.sender != owner) {\n            revert UnauthorizedAccess();\n        }\n        _;\n    }\n\n    /// @notice modifier to check if the caller is the seller of the product\n    modifier onlySeller() {\n        if (msg.sender != seller) {\n            revert UnauthorizedAccess();\n        }\n        _;\n    }\n\n    /// @notice modifier to check if the caller is the shipper of the order\n    modifier onlyShipper() {\n        if (msg.sender != shipper) {\n            revert UnauthorizedAccess();\n        }\n        _;\n    }\n\n    /// @notice modifier to check if the order is in created state\n    modifier onlyOrderCreatedState() {\n        if (orderStatus != OrderStatus.CREATED) {\n            revert OrderNotCreatedState();\n        }\n        _;\n    }\n\n    /// @notice modifier to check if the order is in verified state\n    modifier onlyOrderVerifiedState() {\n        if (orderStatus != OrderStatus.VERIFIED) {\n            revert OrderNotVerifiedState();\n        }\n        _;\n    }\n\n    /// @notice modifier to check if the order is in paid state\n    modifier onlyOrderPaidState() {\n        if (orderStatus != OrderStatus.PAID) {\n            revert OrderNotPaidState();\n        }\n        _;\n    }\n\n    /// @notice modifier to check if the order is in delivered state\n    modifier onlyOrderDeliveringState() {\n        if (orderStatus != OrderStatus.DELIVERING) {\n            revert OrderNotDelivered();\n        }\n        _;\n    }\n\n    /** CREATED STATE function */\n    /// @notice Creating an order\n    /// @param _product the address of the product that is being purchased\n    /// @param _seller the address of the seller of the product\n    /// @param _shipper the address of the shipper of the order\n    /// @param _oracle the address of the oracle contract\n    /// @param _destinations the delivery points\n    /// @param _intermediaries the parties involved\n    /// @param _deliveryDueTimes the delivery due times\n    constructor(\n        address _product,\n        address _seller,\n        address _shipper,\n        address _oracle,\n        string[] memory _destinations,\n        address[] memory _intermediaries,\n        uint[] memory _deliveryDueTimes\n    ) {\n        product = _product;\n        owner = msg.sender;\n        seller = _seller;\n        shipper = _shipper;\n        oracle = Oracle(_oracle);\n\n        if (_destinations.length != _intermediaries.length) {\n            revert DestinationsLengthAndIntermediariesLengthNotEqual();\n        }\n\n        if (_destinations.length != _deliveryDueTimes.length) {\n            revert DestinationsLengthAndDeliveryDueTimesLengthNotEqual();\n        }\n\n        destinations = _destinations;\n        intermediaries = _intermediaries;\n        deliveryDueTimes = _deliveryDueTimes;\n        orderStatus = OrderStatus.CREATED;\n    }\n\n    /** VERIFIED STATE functions */\n    /// @notice Verify the order by the seller (only can be done in created state)\n    /// @param inStock whether the product is in stock\n    function verifyOrderBySeller(\n        bool inStock\n    ) external onlySeller onlyOrderCreatedState {\n        if (inStock == false) {\n            orderStatus = OrderStatus.CANCELLED;\n            return;\n        }\n\n        isVerifiedBySeller = true;\n\n        if (isVerifiedByShipper == true) {\n            orderStatus = OrderStatus.VERIFIED;\n        }\n    }\n\n    /// @notice Verify the order by the shipper (only can be done in created state)\n    /// @param rightDestinations whether the delivery points are right\n    function verifyOrderByShipper(\n        bool rightDestinations\n    ) external onlyShipper onlyOrderCreatedState {\n        if (rightDestinations == false) {\n            orderStatus = OrderStatus.CANCELLED;\n            return;\n        }\n\n        isVerifiedByShipper = true;\n\n        if (isVerifiedBySeller == true) {\n            orderStatus = OrderStatus.VERIFIED;\n        }\n    }\n\n    /** PAID STATE function */\n    /// @notice Check if the order is paid by the buyer (only can be done in verified state)\n    /// @dev call the oracle contract to check if the order is paid\n    /// @return whether the order is paid\n    function isPaid() external onlyOrderVerifiedState returns (bool) {\n        // call oracle functions\n        if (oracle.isPaid(address(this)) == false) {\n            return false;\n        } else {\n            orderStatus = OrderStatus.PAID;\n            return true;\n        }\n    }\n\n    /** DELIVERING STATE function */\n    /// @notice Update the shipment by the delivery point centres (only can be done in paid state)\n    ///         Only can be called the delivery point centres' addresses\n    /// @param timestamp the timestamp of the delivery\n    function updateShipment(uint timestamp) external {\n        if (orderStatus == OrderStatus.PAID) {\n            // check if this is the first shipment\n            if (intermediaries[0] != msg.sender) {\n                revert UnauthorizedAccess();\n            }\n            orderStatus = OrderStatus.DELIVERING;\n        } else if (orderStatus == OrderStatus.DELIVERING) {\n            if (timestamp <= lastUpdatedAt) {\n                revert IncorrectTimestamp();\n            }\n\n            if (currentDeliveryPoint >= destinations.length) {\n                revert OrderAlreadyDelivered();\n            }\n            if (intermediaries[currentDeliveryPoint] != msg.sender) {\n                revert UnauthorizedAccess();\n            }\n        } else {\n            revert IncorrectOrderStatusState();\n        }\n\n        emit ShipmentUpdated(timestamp, destinations[currentDeliveryPoint]);\n        deliveryTimes[msg.sender] = timestamp; // update the delivery time \n        ++currentDeliveryPoint;\n        lastUpdatedAt = timestamp;\n    }\n\n    /** RECEIVED STATE function */\n    /// @notice Buyer acknowledges that they have received the order and verify the receipt (only can be done in delivered state)\n    function verifyReceipt() external onlyOwner onlyOrderDeliveringState {\n        orderStatus = OrderStatus.RECEIVED;\n    }\n\n    /** CANCELLED STATE function */\n    /// @notice Buyer/Seller/Shipper could make an emergency cancellation of the order at any time\n    function cancelOrder() external {\n        if (\n            msg.sender == owner || msg.sender == seller || msg.sender == shipper\n        ) {\n            orderStatus = OrderStatus.CANCELLED;\n        } else {\n            revert UnauthorizedAccess();\n        }\n    }\n\n    /** GETTER functions */\n    /// @notice Get the order status of the order\n    /// @return the order status\n    function getOrderStatus() external view returns (OrderStatus) {\n        return orderStatus;\n    }\n\n    /// @notice Get the status whether the order is verified by the seller\n    /// @return whether the order is verified by the seller\n    function getIsVerifiedBySeller() external view returns (bool) {\n        return isVerifiedBySeller;\n    }\n\n    /// @notice Get the status whether the order is verified by the shipper\n    /// @return whether the order is verified by the shipper\n    function getIsVerifiedByShipper() external view returns (bool) {\n        return isVerifiedByShipper;\n    }\n\n    /// @notice Get the current delivery point\n    /// @dev if currentDeliveryPoint is 0, then it is the first delivery point\n    ///      else it is the last delivery point which is updated\n    /// @return the current delivery point (in string format)\n    function getCurrentDeliveryPoint() external view returns (string memory) {\n        return (\n            currentDeliveryPoint == 0\n                ? destinations[currentDeliveryPoint]\n                : destinations[currentDeliveryPoint - 1]\n        );\n    }\n\n    /// @notice Get the last updated time\n    /// @return the last updated time (in epoch format)\n    function getLastUpdatedAt() external view returns (uint) {\n        return lastUpdatedAt;\n    }\n\n    /// @notice Get the delivery points\n    /// @return the delivery points \n    function getDeliveryPoints() external view returns (string[] memory) {\n        return destinations;\n    }\n\n    /// @notice Get the delivery point centres' addresses\n    /// @return the delivery point centres' addresses\n    function getIntermediaries() external view returns (address[] memory) {\n        return intermediaries;\n    }\n\n    /// @notice Get the delivery due times\n    /// @return the delivery due times (in an array with epoch format)\n    function getDeliveryDueTimes() external view returns (uint[] memory) {\n        return deliveryDueTimes;\n    }\n\n    /// @notice Get the delivery times\n    /// @return the delivery times (in an array with epoch format)\n    function getDeliveryTimes() external view returns (uint[] memory) {\n        uint[] memory times = new uint[](intermediaries.length);\n        for (uint i = 0; i < intermediaries.length; ++i) {\n            times[i] = deliveryTimes[intermediaries[i]];\n        }\n        return times;\n    }\n}\n",
  "sourcePath": "/Users/odenpetersen/Documents/Programming/blockchain-supply-chain/src/Order.sol",
  "compiler": {
    "name": "solc",
    "version": "0.8.19+commit.7dd6d404.Emscripten.clang"
  },
  "schemaVersion": "3.4.14",
  "updatedAt": "2023-07-25T01:45:16.755Z",
  "devdoc": {
    "author": "Amos Tan, Oden Peterson (COMP6452 2023T2 Group 22)",
    "kind": "dev",
    "methods": {
      "constructor": {
        "params": {
          "_deliveryDueTimes": "the delivery due times",
          "_destinations": "the delivery points",
          "_intermediaries": "the parties involved",
          "_oracle": "the address of the oracle contract",
          "_product": "the address of the product that is being purchased",
          "_seller": "the address of the seller of the product",
          "_shipper": "the address of the shipper of the order"
        }
      },
      "getCurrentDeliveryPoint()": {
        "details": "if currentDeliveryPoint is 0, then it is the first delivery point      else it is the last delivery point which is updated",
        "returns": {
          "_0": "the current delivery point (in string format)"
        }
      },
      "getDeliveryDueTimes()": {
        "returns": {
          "_0": "the delivery due times (in an array with epoch format)"
        }
      },
      "getDeliveryPoints()": {
        "returns": {
          "_0": "the delivery points "
        }
      },
      "getDeliveryTimes()": {
        "returns": {
          "_0": "the delivery times (in an array with epoch format)"
        }
      },
      "getIntermediaries()": {
        "returns": {
          "_0": "the delivery point centres' addresses"
        }
      },
      "getIsVerifiedBySeller()": {
        "returns": {
          "_0": "whether the order is verified by the seller"
        }
      },
      "getIsVerifiedByShipper()": {
        "returns": {
          "_0": "whether the order is verified by the shipper"
        }
      },
      "getLastUpdatedAt()": {
        "returns": {
          "_0": "the last updated time (in epoch format)"
        }
      },
      "getOrderStatus()": {
        "returns": {
          "_0": "the order status"
        }
      },
      "isPaid()": {
        "details": "call the oracle contract to check if the order is paid",
        "returns": {
          "_0": "whether the order is paid"
        }
      },
      "updateShipment(uint256)": {
        "params": {
          "timestamp": "the timestamp of the delivery"
        }
      },
      "verifyOrderBySeller(bool)": {
        "params": {
          "inStock": "whether the product is in stock"
        }
      },
      "verifyOrderByShipper(bool)": {
        "params": {
          "rightDestinations": "whether the delivery points are right"
        }
      }
    },
    "title": "The order contract",
    "version": 1
  },
  "userdoc": {
    "events": {
      "ShipmentUpdated(uint256,string)": {
        "notice": "event emitted when the order is updated by the delivery point centres"
      }
    },
    "kind": "user",
    "methods": {
      "cancelOrder()": {
        "notice": "Buyer/Seller/Shipper could make an emergency cancellation of the order at any time"
      },
      "constructor": {
        "notice": "Creating an order"
      },
      "getCurrentDeliveryPoint()": {
        "notice": "Get the current delivery point"
      },
      "getDeliveryDueTimes()": {
        "notice": "Get the delivery due times"
      },
      "getDeliveryPoints()": {
        "notice": "Get the delivery points"
      },
      "getDeliveryTimes()": {
        "notice": "Get the delivery times"
      },
      "getIntermediaries()": {
        "notice": "Get the delivery point centres' addresses"
      },
      "getIsVerifiedBySeller()": {
        "notice": "Get the status whether the order is verified by the seller"
      },
      "getIsVerifiedByShipper()": {
        "notice": "Get the status whether the order is verified by the shipper"
      },
      "getLastUpdatedAt()": {
        "notice": "Get the last updated time"
      },
      "getOrderStatus()": {
        "notice": "Get the order status of the order"
      },
      "isPaid()": {
        "notice": "Check if the order is paid by the buyer (only can be done in verified state)"
      },
      "updateShipment(uint256)": {
        "notice": "Update the shipment by the delivery point centres (only can be done in paid state)         Only can be called the delivery point centres' addresses"
      },
      "verifyOrderBySeller(bool)": {
        "notice": "Verify the order by the seller (only can be done in created state)"
      },
      "verifyOrderByShipper(bool)": {
        "notice": "Verify the order by the shipper (only can be done in created state)"
      },
      "verifyReceipt()": {
        "notice": "Buyer acknowledges that they have received the order and verify the receipt (only can be done in delivered state)"
      }
    },
    "notice": "Here is the flow to use this contract: 1. Buyer creates an order 2. Seller and Shipper verifies the order (order does not matter) 3. Check if the order is paid by the buyer by verifying with the oracle contract 4. The intermediaries update the shipment 5. Buyer verifies the receipt Note that Buyer, Seller, Shipper can cancels the order at any time",
    "version": 1
  }
}