{
  "contractName": "Order",
  "abi": [
    {
      "inputs": [
        {
          "internalType": "address",
          "name": "_product",
          "type": "address"
        },
        {
          "internalType": "address",
          "name": "_seller",
          "type": "address"
        },
        {
          "internalType": "address",
          "name": "_shipper",
          "type": "address"
        },
        {
          "internalType": "string[]",
          "name": "_destinations",
          "type": "string[]"
        },
        {
          "internalType": "address[]",
          "name": "_intermediaries",
          "type": "address[]"
        },
        {
          "internalType": "uint256[]",
          "name": "_deliveryDueTimes",
          "type": "uint256[]"
        }
      ],
      "stateMutability": "nonpayable",
      "type": "constructor"
    },
    {
      "inputs": [],
      "name": "DestinationsLengthAndDeliveryDueTimesLengthNotEqual",
      "type": "error"
    },
    {
      "inputs": [],
      "name": "DestinationsLengthAndIntermediariesLengthNotEqual",
      "type": "error"
    },
    {
      "inputs": [],
      "name": "IncorrectOrderStatusState",
      "type": "error"
    },
    {
      "inputs": [],
      "name": "OrderAlreadyDelivered",
      "type": "error"
    },
    {
      "inputs": [],
      "name": "OrderNotCreatedState",
      "type": "error"
    },
    {
      "inputs": [],
      "name": "OrderNotDelivered",
      "type": "error"
    },
    {
      "inputs": [],
      "name": "OrderNotPaidState",
      "type": "error"
    },
    {
      "inputs": [],
      "name": "OrderNotVerifiedState",
      "type": "error"
    },
    {
      "inputs": [],
      "name": "UnauthorizedAccess",
      "type": "error"
    },
    {
      "anonymous": false,
      "inputs": [
        {
          "indexed": false,
          "internalType": "string",
          "name": "place",
          "type": "string"
        },
        {
          "indexed": false,
          "internalType": "uint256",
          "name": "timestamp",
          "type": "uint256"
        }
      ],
      "name": "UpdatedShipment",
      "type": "event"
    },
    {
      "inputs": [
        {
          "internalType": "bool",
          "name": "inStock",
          "type": "bool"
        }
      ],
      "name": "verifyOrderBySeller",
      "outputs": [],
      "stateMutability": "nonpayable",
      "type": "function"
    },
    {
      "inputs": [
        {
          "internalType": "bool",
          "name": "rightDestinations",
          "type": "bool"
        }
      ],
      "name": "verifyOrderByShipper",
      "outputs": [],
      "stateMutability": "nonpayable",
      "type": "function"
    },
    {
      "inputs": [],
      "name": "isPaid",
      "outputs": [
        {
          "internalType": "bool",
          "name": "",
          "type": "bool"
        }
      ],
      "stateMutability": "nonpayable",
      "type": "function"
    },
    {
      "inputs": [
        {
          "internalType": "uint256",
          "name": "timestamp",
          "type": "uint256"
        }
      ],
      "name": "updateShipment",
      "outputs": [],
      "stateMutability": "nonpayable",
      "type": "function"
    },
    {
      "inputs": [],
      "name": "verifyReceipt",
      "outputs": [],
      "stateMutability": "nonpayable",
      "type": "function"
    },
    {
      "inputs": [],
      "name": "cancelOrder",
      "outputs": [],
      "stateMutability": "nonpayable",
      "type": "function"
    },
    {
      "inputs": [],
      "name": "getOrderStatus",
      "outputs": [
        {
          "internalType": "enum IOrder.OrderStatus",
          "name": "",
          "type": "uint8"
        }
      ],
      "stateMutability": "view",
      "type": "function"
    },
    {
      "inputs": [],
      "name": "getIsVerifiedBySeller",
      "outputs": [
        {
          "internalType": "bool",
          "name": "",
          "type": "bool"
        }
      ],
      "stateMutability": "view",
      "type": "function"
    },
    {
      "inputs": [],
      "name": "getIsVerifiedByShipper",
      "outputs": [
        {
          "internalType": "bool",
          "name": "",
          "type": "bool"
        }
      ],
      "stateMutability": "view",
      "type": "function"
    },
    {
      "inputs": [],
      "name": "getCurrentDeliveryPoint",
      "outputs": [
        {
          "internalType": "string",
          "name": "",
          "type": "string"
        }
      ],
      "stateMutability": "view",
      "type": "function"
    },
    {
      "inputs": [],
      "name": "getLastUpdatedAt",
      "outputs": [
        {
          "internalType": "uint256",
          "name": "",
          "type": "uint256"
        }
      ],
      "stateMutability": "view",
      "type": "function"
    },
    {
      "inputs": [],
      "name": "getDeliveryPoints",
      "outputs": [
        {
          "internalType": "string[]",
          "name": "",
          "type": "string[]"
        }
      ],
      "stateMutability": "view",
      "type": "function"
    },
    {
      "inputs": [],
      "name": "getIntermediaries",
      "outputs": [
        {
          "internalType": "address[]",
          "name": "",
          "type": "address[]"
        }
      ],
      "stateMutability": "view",
      "type": "function"
    },
    {
      "inputs": [],
      "name": "getDeliveryDueTimes",
      "outputs": [
        {
          "internalType": "uint256[]",
          "name": "",
          "type": "uint256[]"
        }
      ],
      "stateMutability": "view",
      "type": "function"
    },
    {
      "inputs": [],
      "name": "getDeliveryTimes",
      "outputs": [
        {
          "internalType": "uint256[]",
          "name": "",
          "type": "uint256[]"
        }
      ],
      "stateMutability": "view",
      "type": "function"
    }
  ],
  "bytecode": "0x608060405234801562000010575f80fd5b506040516200234e3803806200234e833981810160405281019062000036919062000844565b855f806101000a81548173ffffffffffffffffffffffffffffffffffffffff021916908373ffffffffffffffffffffffffffffffffffffffff1602179055503360015f6101000a81548173ffffffffffffffffffffffffffffffffffffffff021916908373ffffffffffffffffffffffffffffffffffffffff1602179055508460025f6101000a81548173ffffffffffffffffffffffffffffffffffffffff021916908373ffffffffffffffffffffffffffffffffffffffff1602179055508360035f6101000a81548173ffffffffffffffffffffffffffffffffffffffff021916908373ffffffffffffffffffffffffffffffffffffffff160217905550815183511462000171576040517f5520e8cb00000000000000000000000000000000000000000000000000000000815260040160405180910390fd5b82600690805190602001906200018992919062000217565b508160079080519060200190620001a292919062000275565b508051835114620001df576040517f6e2f14b700000000000000000000000000000000000000000000000000000000815260040160405180910390fd5b5f600a5f6101000a81548160ff0219169083600581111562000206576200020562000939565b5b021790555050505050505062000c78565b828054828255905f5260205f2090810192821562000262579160200282015b828111156200026157825182908162000250919062000b94565b509160200191906001019062000236565b5b50905062000271919062000301565b5090565b828054828255905f5260205f20908101928215620002ee579160200282015b82811115620002ed578251825f6101000a81548173ffffffffffffffffffffffffffffffffffffffff021916908373ffffffffffffffffffffffffffffffffffffffff1602179055509160200191906001019062000294565b5b509050620002fd919062000328565b5090565b5b8082111562000324575f81816200031a919062000345565b5060010162000302565b5090565b5b8082111562000341575f815f90555060010162000329565b5090565b50805462000353906200099d565b5f825580601f1062000366575062000385565b601f0160209004905f5260205f209081019062000384919062000328565b5b50565b5f604051905090565b5f80fd5b5f80fd5b5f73ffffffffffffffffffffffffffffffffffffffff82169050919050565b5f620003c48262000399565b9050919050565b620003d681620003b8565b8114620003e1575f80fd5b50565b5f81519050620003f481620003cb565b92915050565b5f80fd5b5f601f19601f8301169050919050565b7f4e487b71000000000000000000000000000000000000000000000000000000005f52604160045260245ffd5b6200044682620003fe565b810181811067ffffffffffffffff821117156200046857620004676200040e565b5b80604052505050565b5f6200047c62000388565b90506200048a82826200043b565b919050565b5f67ffffffffffffffff821115620004ac57620004ab6200040e565b5b602082029050602081019050919050565b5f80fd5b5f80fd5b5f67ffffffffffffffff821115620004e257620004e16200040e565b5b620004ed82620003fe565b9050602081019050919050565b5f5b8381101562000519578082015181840152602081019050620004fc565b5f8484015250505050565b5f6200053a6200053484620004c5565b62000471565b905082815260208101848484011115620005595762000558620004c1565b5b62000566848285620004fa565b509392505050565b5f82601f830112620005855762000584620003fa565b5b81516200059784826020860162000524565b91505092915050565b5f620005b6620005b0846200048f565b62000471565b90508083825260208201905060208402830185811115620005dc57620005db620004bd565b5b835b818110156200062a57805167ffffffffffffffff811115620006055762000604620003fa565b5b8086016200061489826200056e565b85526020850194505050602081019050620005de565b5050509392505050565b5f82601f8301126200064b576200064a620003fa565b5b81516200065d848260208601620005a0565b91505092915050565b5f67ffffffffffffffff8211156200068357620006826200040e565b5b602082029050602081019050919050565b5f620006aa620006a48462000666565b62000471565b90508083825260208201905060208402830185811115620006d057620006cf620004bd565b5b835b81811015620006fd5780620006e88882620003e4565b845260208401935050602081019050620006d2565b5050509392505050565b5f82601f8301126200071e576200071d620003fa565b5b81516200073084826020860162000694565b91505092915050565b5f67ffffffffffffffff8211156200075657620007556200040e565b5b602082029050602081019050919050565b5f819050919050565b6200077b8162000767565b811462000786575f80fd5b50565b5f81519050620007998162000770565b92915050565b5f620007b5620007af8462000739565b62000471565b90508083825260208201905060208402830185811115620007db57620007da620004bd565b5b835b81811015620008085780620007f3888262000789565b845260208401935050602081019050620007dd565b5050509392505050565b5f82601f830112620008295762000828620003fa565b5b81516200083b8482602086016200079f565b91505092915050565b5f805f805f8060c0878903121562000861576200086062000391565b5b5f6200087089828a01620003e4565b96505060206200088389828a01620003e4565b95505060406200089689828a01620003e4565b945050606087015167ffffffffffffffff811115620008ba57620008b962000395565b5b620008c889828a0162000634565b935050608087015167ffffffffffffffff811115620008ec57620008eb62000395565b5b620008fa89828a0162000707565b92505060a087015167ffffffffffffffff8111156200091e576200091d62000395565b5b6200092c89828a0162000812565b9150509295509295509295565b7f4e487b71000000000000000000000000000000000000000000000000000000005f52602160045260245ffd5b5f81519050919050565b7f4e487b71000000000000000000000000000000000000000000000000000000005f52602260045260245ffd5b5f6002820490506001821680620009b557607f821691505b602082108103620009cb57620009ca62000970565b5b50919050565b5f819050815f5260205f209050919050565b5f6020601f8301049050919050565b5f82821b905092915050565b5f6008830262000a2f7fffffffffffffffffffffffffffffffffffffffffffffffffffffffffffffffff82620009f2565b62000a3b8683620009f2565b95508019841693508086168417925050509392505050565b5f819050919050565b5f62000a7c62000a7662000a708462000767565b62000a53565b62000767565b9050919050565b5f819050919050565b62000a978362000a5c565b62000aaf62000aa68262000a83565b848454620009fe565b825550505050565b5f90565b62000ac562000ab7565b62000ad281848462000a8c565b505050565b5b8181101562000af95762000aed5f8262000abb565b60018101905062000ad8565b5050565b601f82111562000b485762000b1281620009d1565b62000b1d84620009e3565b8101602085101562000b2d578190505b62000b4562000b3c85620009e3565b83018262000ad7565b50505b505050565b5f82821c905092915050565b5f62000b6a5f198460080262000b4d565b1980831691505092915050565b5f62000b84838362000b59565b9150826002028217905092915050565b62000b9f8262000966565b67ffffffffffffffff81111562000bbb5762000bba6200040e565b5b62000bc782546200099d565b62000bd482828562000afd565b5f60209050601f83116001811462000c0a575f841562000bf5578287015190505b62000c01858262000b77565b86555062000c70565b601f19841662000c1a86620009d1565b5f5b8281101562000c435784890151825560018201915060208501945060208101905062000c1c565b8683101562000c63578489015162000c5f601f89168262000b59565b8355505b6001600288020188555050505b505050505050565b6116c88062000c865f395ff3fe608060405234801561000f575f80fd5b50600436106100f3575f3560e01c8063754fdd9a11610095578063b1bc27b011610064578063b1bc27b014610215578063bdcf8c7714610233578063d81d26ae14610251578063f912ab821461026f576100f3565b8063754fdd9a146101b35780638954b3bf146101bd5780639a895420146101d95780639b923053146101f7576100f3565b806324abb247116100d157806324abb2471461015157806341df9bb71461016f5780636a8165481461018b57806374a356c714610195576100f3565b806309e3b2a4146100f7578063110f2b7c14610115578063209ebc0814610133575b5f80fd5b6100ff61028b565b60405161010c91906110a2565b60405180910390f35b61011d61035f565b60405161012a91906110dc565b60405180910390f35b61013b610375565b60405161014891906110dc565b60405180910390f35b610159610413565b604051610166919061110d565b60405180910390f35b61018960048036038101906101849190611154565b61041c565b005b6101936106ee565b005b61019d610854565b6040516101aa91906110dc565b60405180910390f35b6101bb61086a565b005b6101d760048036038101906101d291906111a9565b610988565b005b6101e1610b18565b6040516101ee91906112bb565b60405180910390f35b6101ff610ba3565b60405161020c9190611392565b60405180910390f35b61021d610cb6565b60405161022a9190611392565b60405180910390f35b61023b610d0c565b60405161024891906113fa565b60405180910390f35b610259610db8565b604051610266919061148d565b60405180910390f35b610289600480360381019061028491906111a9565b610dcd565b005b60606006805480602002602001604051908101604052809291908181526020015f905b82821015610356578382905f5260205f200180546102cb906114d3565b80601f01602080910402602001604051908101604052809291908181526020018280546102f7906114d3565b80156103425780601f1061031957610100808354040283529160200191610342565b820191905f5260205f20905b81548152906001019060200180831161032557829003601f168201915b5050505050815260200190600101906102ae565b50505050905090565b5f600360149054906101000a900460ff16905090565b5f6001600581111561038a5761038961141a565b5b600a5f9054906101000a900460ff1660058111156103ab576103aa61141a565b5b146103e2576040517f2a63624900000000000000000000000000000000000000000000000000000000815260040160405180910390fd5b6002600a5f6101000a81548160ff021916908360058111156104075761040661141a565b5b02179055506001905090565b5f600554905090565b600260058111156104305761042f61141a565b5b600a5f9054906101000a900460ff1660058111156104515761045061141a565b5b03610525573373ffffffffffffffffffffffffffffffffffffffff1660075f8154811061048157610480611503565b5b905f5260205f20015f9054906101000a900473ffffffffffffffffffffffffffffffffffffffff1673ffffffffffffffffffffffffffffffffffffffff16146104f6576040517f344fd58600000000000000000000000000000000000000000000000000000000815260040160405180910390fd5b6003600a5f6101000a81548160ff0219169083600581111561051b5761051a61141a565b5b0217905550610679565b600360058111156105395761053861141a565b5b600a5f9054906101000a900460ff16600581111561055a5761055961141a565b5b03610646576006805490506004541061059f576040517f458d20d000000000000000000000000000000000000000000000000000000000815260040160405180910390fd5b3373ffffffffffffffffffffffffffffffffffffffff166007600454815481106105cc576105cb611503565b5b905f5260205f20015f9054906101000a900473ffffffffffffffffffffffffffffffffffffffff1673ffffffffffffffffffffffffffffffffffffffff1614610641576040517f344fd58600000000000000000000000000000000000000000000000000000000815260040160405180910390fd5b610678565b6040517f461e3ec300000000000000000000000000000000000000000000000000000000815260040160405180910390fd5b5b60045f81546106879061155d565b91905081905550806005819055507f048aefd5f91da1e18dbeb1ce85de0665b323efd3b284e468c0dafdd2709e676e6006600454815481106106cc576106cb611503565b5b905f5260205f2001826040516106e3929190611637565b60405180910390a150565b60015f9054906101000a900473ffffffffffffffffffffffffffffffffffffffff1673ffffffffffffffffffffffffffffffffffffffff163373ffffffffffffffffffffffffffffffffffffffff161480610795575060025f9054906101000a900473ffffffffffffffffffffffffffffffffffffffff1673ffffffffffffffffffffffffffffffffffffffff163373ffffffffffffffffffffffffffffffffffffffff16145b806107ec575060035f9054906101000a900473ffffffffffffffffffffffffffffffffffffffff1673ffffffffffffffffffffffffffffffffffffffff163373ffffffffffffffffffffffffffffffffffffffff16145b15610820576005600a5f6101000a81548160ff021916908360058111156108165761081561141a565b5b0217905550610852565b6040517f344fd58600000000000000000000000000000000000000000000000000000000815260040160405180910390fd5b565b5f600360159054906101000a900460ff16905090565b60015f9054906101000a900473ffffffffffffffffffffffffffffffffffffffff1673ffffffffffffffffffffffffffffffffffffffff163373ffffffffffffffffffffffffffffffffffffffff16146108f0576040517f344fd58600000000000000000000000000000000000000000000000000000000815260040160405180910390fd5b600360058111156109045761090361141a565b5b600a5f9054906101000a900460ff1660058111156109255761092461141a565b5b1461095c576040517f0a59dbe700000000000000000000000000000000000000000000000000000000815260040160405180910390fd5b6004600a5f6101000a81548160ff021916908360058111156109815761098061141a565b5b0217905550565b60025f9054906101000a900473ffffffffffffffffffffffffffffffffffffffff1673ffffffffffffffffffffffffffffffffffffffff163373ffffffffffffffffffffffffffffffffffffffff1614610a0e576040517f344fd58600000000000000000000000000000000000000000000000000000000815260040160405180910390fd5b5f6005811115610a2157610a2061141a565b5b600a5f9054906101000a900460ff166005811115610a4257610a4161141a565b5b14610a79576040517f82811e6300000000000000000000000000000000000000000000000000000000815260040160405180910390fd5b5f151581151503610ab3576005600a5f6101000a81548160ff02191690836005811115610aa957610aa861141a565b5b0217905550610b15565b6001600360146101000a81548160ff02191690831515021790555060011515600360159054906101000a900460ff16151503610b14576001600a5f6101000a81548160ff02191690836005811115610b0e57610b0d61141a565b5b02179055505b5b50565b60606007805480602002602001604051908101604052809291908181526020018280548015610b9957602002820191905f5260205f20905b815f9054906101000a900473ffffffffffffffffffffffffffffffffffffffff1673ffffffffffffffffffffffffffffffffffffffff1681526020019060010190808311610b50575b5050505050905090565b60605f60078054905067ffffffffffffffff811115610bc557610bc4611665565b5b604051908082528060200260200182016040528015610bf35781602001602082028036833780820191505090505b5090505f5b600780549050811015610cae5760095f60078381548110610c1c57610c1b611503565b5b905f5260205f20015f9054906101000a900473ffffffffffffffffffffffffffffffffffffffff1673ffffffffffffffffffffffffffffffffffffffff1673ffffffffffffffffffffffffffffffffffffffff1681526020019081526020015f2054828281518110610c9157610c90611503565b5b60200260200101818152505080610ca79061155d565b9050610bf8565b508091505090565b60606008805480602002602001604051908101604052809291908181526020018280548015610d0257602002820191905f5260205f20905b815481526020019060010190808311610cee575b5050505050905090565b6060600660045481548110610d2457610d23611503565b5b905f5260205f20018054610d37906114d3565b80601f0160208091040260200160405190810160405280929190818152602001828054610d63906114d3565b8015610dae5780601f10610d8557610100808354040283529160200191610dae565b820191905f5260205f20905b815481529060010190602001808311610d9157829003601f168201915b5050505050905090565b5f600a5f9054906101000a900460ff16905090565b60035f9054906101000a900473ffffffffffffffffffffffffffffffffffffffff1673ffffffffffffffffffffffffffffffffffffffff163373ffffffffffffffffffffffffffffffffffffffff1614610e53576040517f344fd58600000000000000000000000000000000000000000000000000000000815260040160405180910390fd5b5f6005811115610e6657610e6561141a565b5b600a5f9054906101000a900460ff166005811115610e8757610e8661141a565b5b14610ebe576040517f82811e6300000000000000000000000000000000000000000000000000000000815260040160405180910390fd5b5f151581151503610ef8576005600a5f6101000a81548160ff02191690836005811115610eee57610eed61141a565b5b0217905550610f5a565b6001600360156101000a81548160ff02191690831515021790555060011515600360149054906101000a900460ff16151503610f59576001600a5f6101000a81548160ff02191690836005811115610f5357610f5261141a565b5b02179055505b5b50565b5f81519050919050565b5f82825260208201905092915050565b5f819050602082019050919050565b5f81519050919050565b5f82825260208201905092915050565b5f5b83811015610fbd578082015181840152602081019050610fa2565b5f8484015250505050565b5f601f19601f8301169050919050565b5f610fe282610f86565b610fec8185610f90565b9350610ffc818560208601610fa0565b61100581610fc8565b840191505092915050565b5f61101b8383610fd8565b905092915050565b5f602082019050919050565b5f61103982610f5d565b6110438185610f67565b93508360208202850161105585610f77565b805f5b8581101561109057848403895281516110718582611010565b945061107c83611023565b925060208a01995050600181019050611058565b50829750879550505050505092915050565b5f6020820190508181035f8301526110ba818461102f565b905092915050565b5f8115159050919050565b6110d6816110c2565b82525050565b5f6020820190506110ef5f8301846110cd565b92915050565b5f819050919050565b611107816110f5565b82525050565b5f6020820190506111205f8301846110fe565b92915050565b5f80fd5b611133816110f5565b811461113d575f80fd5b50565b5f8135905061114e8161112a565b92915050565b5f6020828403121561116957611168611126565b5b5f61117684828501611140565b91505092915050565b611188816110c2565b8114611192575f80fd5b50565b5f813590506111a38161117f565b92915050565b5f602082840312156111be576111bd611126565b5b5f6111cb84828501611195565b91505092915050565b5f81519050919050565b5f82825260208201905092915050565b5f819050602082019050919050565b5f73ffffffffffffffffffffffffffffffffffffffff82169050919050565b5f611226826111fd565b9050919050565b6112368161121c565b82525050565b5f611247838361122d565b60208301905092915050565b5f602082019050919050565b5f611269826111d4565b61127381856111de565b935061127e836111ee565b805f5b838110156112ae578151611295888261123c565b97506112a083611253565b925050600181019050611281565b5085935050505092915050565b5f6020820190508181035f8301526112d3818461125f565b905092915050565b5f81519050919050565b5f82825260208201905092915050565b5f819050602082019050919050565b61130d816110f5565b82525050565b5f61131e8383611304565b60208301905092915050565b5f602082019050919050565b5f611340826112db565b61134a81856112e5565b9350611355836112f5565b805f5b8381101561138557815161136c8882611313565b97506113778361132a565b925050600181019050611358565b5085935050505092915050565b5f6020820190508181035f8301526113aa8184611336565b905092915050565b5f82825260208201905092915050565b5f6113cc82610f86565b6113d681856113b2565b93506113e6818560208601610fa0565b6113ef81610fc8565b840191505092915050565b5f6020820190508181035f83015261141281846113c2565b905092915050565b7f4e487b71000000000000000000000000000000000000000000000000000000005f52602160045260245ffd5b600681106114585761145761141a565b5b50565b5f81905061146882611447565b919050565b5f6114778261145b565b9050919050565b6114878161146d565b82525050565b5f6020820190506114a05f83018461147e565b92915050565b7f4e487b71000000000000000000000000000000000000000000000000000000005f52602260045260245ffd5b5f60028204905060018216806114ea57607f821691505b6020821081036114fd576114fc6114a6565b5b50919050565b7f4e487b71000000000000000000000000000000000000000000000000000000005f52603260045260245ffd5b7f4e487b71000000000000000000000000000000000000000000000000000000005f52601160045260245ffd5b5f611567826110f5565b91507fffffffffffffffffffffffffffffffffffffffffffffffffffffffffffffffff820361159957611598611530565b5b600182019050919050565b5f819050815f5260205f209050919050565b5f81546115c2816114d3565b6115cc81866113b2565b9450600182165f81146115e657600181146115fc5761162e565b60ff19831686528115156020028601935061162e565b611605856115a4565b5f5b8381101561162657815481890152600182019150602081019050611607565b808801955050505b50505092915050565b5f6040820190508181035f83015261164f81856115b6565b905061165e60208301846110fe565b9392505050565b7f4e487b71000000000000000000000000000000000000000000000000000000005f52604160045260245ffdfea26469706673582212202098844b309d2f87767fc5940c6562e5a072a85853bdc9b69bb0510329ed448964736f6c63430008150033",
  "immutableReferences": {},
  "source": "// SPDX-License-Identifier: UNLICENSED\n\npragma solidity ^0.8.0;\n\n/// @title\n/// @author\n\nimport \"./interfaces/IOrder.sol\";\nimport \"./Oracle.sol\";\n\ncontract Order is IOrder {\n    address product; // address of the product that is being purchased\n    address owner; // buyer of the order\n    address seller; // seller of the product\n    address shipper; // shipper of the order\n    bool isVerifiedBySeller; // whether the seller has verified the order\n    bool isVerifiedByShipper; // whether the shipper has verified the order\n\n    uint currentDeliveryPoint; // current delivery point (index)\n    uint lastUpdatedAt; // last updated time\n\n    string[] destinations; // delivery points\n    address[] intermediaries; // parties involved\n    uint[] deliveryDueTimes; // delivery due times\n    mapping(address => uint) deliveryTimes; // delivery times\n\n    OrderStatus orderStatus;\n    Oracle oracle;\n\n    /// Creating the order\n    constructor(\n        address _product,\n        address _seller,\n        address _shipper,\n        string[] memory _destinations,\n        address[] memory _intermediaries,\n        uint[] memory _deliveryDueTimes\n    ) {\n        product = _product;\n        owner = msg.sender;\n        seller = _seller;\n        shipper = _shipper;\n\n        if (_destinations.length != _intermediaries.length) {\n            revert DestinationsLengthAndIntermediariesLengthNotEqual();\n        }\n\n        destinations = _destinations;\n        intermediaries = _intermediaries;\n\n        if (_destinations.length != _deliveryDueTimes.length) {\n            revert DestinationsLengthAndDeliveryDueTimesLengthNotEqual();\n        }\n\n        orderStatus = OrderStatus.CREATED;\n    }\n\n    /// Verify the order\n    function verifyOrderBySeller(\n        bool inStock\n    ) external onlySeller onlyOrderCreatedState {\n        if (inStock == false) {\n            orderStatus = OrderStatus.CANCELLED;\n            return;\n        }\n\n        isVerifiedBySeller = true;\n\n        if (isVerifiedByShipper == true) {\n            orderStatus = OrderStatus.VERIFIED;\n        }\n    }\n\n    function verifyOrderByShipper(\n        bool rightDestinations\n    ) external onlyShipper onlyOrderCreatedState {\n        if (rightDestinations == false) {\n            orderStatus = OrderStatus.CANCELLED;\n            return;\n        }\n\n        isVerifiedByShipper = true;\n\n        if (isVerifiedBySeller == true) {\n            orderStatus = OrderStatus.VERIFIED;\n        }\n    }\n\n    /// Order being paid\n    function isPaid() external onlyOrderVerifiedState returns (bool) {\n        // call oracle functions\n        orderStatus = OrderStatus.PAID;\n        return true;\n    }\n\n    /// Deliver the order\n    function updateShipment(uint timestamp) external {\n        if (orderStatus == OrderStatus.PAID) {\n            // check if this is the first shipment\n            if (intermediaries[0] != msg.sender) {\n                revert UnauthorizedAccess();\n            }\n            orderStatus = OrderStatus.DELIVERED;\n        } else if (orderStatus == OrderStatus.DELIVERED) {\n            if (currentDeliveryPoint >= destinations.length) {\n                revert OrderAlreadyDelivered();\n            }\n            if (intermediaries[currentDeliveryPoint] != msg.sender) {\n                revert UnauthorizedAccess();\n            }\n        } else {\n            revert IncorrectOrderStatusState();\n        }\n\n        ++currentDeliveryPoint;\n        lastUpdatedAt = timestamp;\n        emit UpdatedShipment(destinations[currentDeliveryPoint], timestamp);\n    }\n\n    /// Verify the receipt\n    function verifyReceipt() external onlyOwner onlyOrderDeliveredState {\n        orderStatus = OrderStatus.RECEIVED;\n    }\n\n    /// Emergency to cancel the orders\n    function cancelOrder() external {\n        if (\n            msg.sender == owner || msg.sender == seller || msg.sender == shipper\n        ) {\n            orderStatus = OrderStatus.CANCELLED;\n        } else {\n            revert UnauthorizedAccess();\n        }\n    }\n\n    // Get the status of the order\n    function getOrderStatus() external view returns (OrderStatus) {\n        return orderStatus;\n    }\n\n    function getIsVerifiedBySeller() external view returns (bool) {\n        return isVerifiedBySeller;\n    }\n\n    function getIsVerifiedByShipper() external view returns (bool) {\n        return isVerifiedByShipper;\n    }\n\n    // Get the current delivery point\n    function getCurrentDeliveryPoint() external view returns (string memory) {\n        return destinations[currentDeliveryPoint];\n    }\n\n    // Get the last updated time\n    function getLastUpdatedAt() external view returns (uint) {\n        return lastUpdatedAt;\n    }\n\n    // Get the delivery points\n    function getDeliveryPoints() external view returns (string[] memory) {\n        return destinations;\n    }\n\n    // Get the intermediaries\n    function getIntermediaries() external view returns (address[] memory) {\n        return intermediaries;\n    }\n\n    // Get the delivery due times\n    function getDeliveryDueTimes() external view returns (uint[] memory) {\n        return deliveryDueTimes;\n    }\n\n    // Get the delivery times\n    function getDeliveryTimes() external view returns (uint[] memory) {\n        uint[] memory times = new uint[](intermediaries.length);\n        for (uint i = 0; i < intermediaries.length; ++i) {\n            times[i] = deliveryTimes[intermediaries[i]];\n        }\n        return times;\n    }\n\n    // modifiers\n    modifier onlyOwner() {\n        if (msg.sender != owner) {\n            revert UnauthorizedAccess();\n        }\n        _;\n    }\n\n    modifier onlySeller() {\n        if (msg.sender != seller) {\n            revert UnauthorizedAccess();\n        }\n        _;\n    }\n\n    modifier onlyShipper() {\n        if (msg.sender != shipper) {\n            revert UnauthorizedAccess();\n        }\n        _;\n    }\n\n    // order states\n    modifier onlyOrderCreatedState() {\n        if (orderStatus != OrderStatus.CREATED) {\n            revert OrderNotCreatedState();\n        }\n        _;\n    }\n\n    modifier onlyOrderVerifiedState() {\n        if (orderStatus != OrderStatus.VERIFIED) {\n            revert OrderNotVerifiedState();\n        }\n        _;\n    }\n\n    modifier onlyOrderPaidState() {\n        if (orderStatus != OrderStatus.PAID) {\n            revert OrderNotPaidState();\n        }\n        _;\n    }\n\n    modifier onlyOrderDeliveredState() {\n        if (orderStatus != OrderStatus.DELIVERED) {\n            revert OrderNotDelivered();\n        }\n        _;\n    }\n}\n",
  "sourcePath": "/Users/odenpetersen/Documents/Programming/blockchain-supply-chain/contracts/Order.sol",
  "compiler": {
    "name": "solc",
    "version": "0.8.21+commit.d9974bed.Emscripten.clang"
  },
  "schemaVersion": "3.4.14",
  "updatedAt": "2023-07-22T14:53:06.770Z",
  "devdoc": {
    "kind": "dev",
    "methods": {},
    "version": 1
  },
  "userdoc": {
    "kind": "user",
    "methods": {
      "cancelOrder()": {
        "notice": "Emergency to cancel the orders"
      },
      "constructor": {
        "notice": "Creating the order"
      },
      "isPaid()": {
        "notice": "Order being paid"
      },
      "updateShipment(uint256)": {
        "notice": "Deliver the order"
      },
      "verifyOrderBySeller(bool)": {
        "notice": "Verify the order"
      },
      "verifyReceipt()": {
        "notice": "Verify the receipt"
      }
    },
    "version": 1
  }
}