{
  "contractName": "Product",
  "abi": [
    {
      "inputs": [
        {
          "internalType": "string",
          "name": "_sku",
          "type": "string"
        },
        {
          "internalType": "string",
          "name": "_name",
          "type": "string"
        },
        {
          "internalType": "uint256",
          "name": "_pricePerUnit",
          "type": "uint256"
        },
        {
          "internalType": "uint256",
          "name": "_decimals",
          "type": "uint256"
        },
        {
          "internalType": "uint256",
          "name": "_quantity",
          "type": "uint256"
        },
        {
          "internalType": "string",
          "name": "_description",
          "type": "string"
        }
      ],
      "stateMutability": "nonpayable",
      "type": "constructor"
    },
    {
      "inputs": [],
      "name": "getSku",
      "outputs": [
        {
          "internalType": "string",
          "name": "",
          "type": "string"
        }
      ],
      "stateMutability": "view",
      "type": "function"
    },
    {
      "inputs": [],
      "name": "getSeller",
      "outputs": [
        {
          "internalType": "address",
          "name": "",
          "type": "address"
        }
      ],
      "stateMutability": "view",
      "type": "function"
    },
    {
      "inputs": [],
      "name": "getName",
      "outputs": [
        {
          "internalType": "string",
          "name": "",
          "type": "string"
        }
      ],
      "stateMutability": "view",
      "type": "function"
    },
    {
      "inputs": [],
      "name": "getPricePerUnit",
      "outputs": [
        {
          "internalType": "uint256",
          "name": "",
          "type": "uint256"
        }
      ],
      "stateMutability": "view",
      "type": "function"
    },
    {
      "inputs": [],
      "name": "getDecimals",
      "outputs": [
        {
          "internalType": "uint256",
          "name": "",
          "type": "uint256"
        }
      ],
      "stateMutability": "view",
      "type": "function"
    },
    {
      "inputs": [],
      "name": "getQuantity",
      "outputs": [
        {
          "internalType": "uint256",
          "name": "",
          "type": "uint256"
        }
      ],
      "stateMutability": "view",
      "type": "function"
    },
    {
      "inputs": [],
      "name": "getDescription",
      "outputs": [
        {
          "internalType": "string",
          "name": "",
          "type": "string"
        }
      ],
      "stateMutability": "view",
      "type": "function"
    }
  ],
  "bytecode": "0x60806040523480156200001157600080fd5b5060405162000bf838038062000bf883398181016040528101906200003791906200029d565b8560009081620000489190620005d7565b5033600160006101000a81548173ffffffffffffffffffffffffffffffffffffffff021916908373ffffffffffffffffffffffffffffffffffffffff16021790555084600290816200009b9190620005d7565b508360038190555082600481905550816005819055508060069081620000c29190620005d7565b50505050505050620006be565b6000604051905090565b600080fd5b600080fd5b600080fd5b600080fd5b6000601f19601f8301169050919050565b7f4e487b7100000000000000000000000000000000000000000000000000000000600052604160045260246000fd5b6200013882620000ed565b810181811067ffffffffffffffff821117156200015a5762000159620000fe565b5b80604052505050565b60006200016f620000cf565b90506200017d82826200012d565b919050565b600067ffffffffffffffff821115620001a0576200019f620000fe565b5b620001ab82620000ed565b9050602081019050919050565b60005b83811015620001d8578082015181840152602081019050620001bb565b60008484015250505050565b6000620001fb620001f58462000182565b62000163565b9050828152602081018484840111156200021a5762000219620000e8565b5b62000227848285620001b8565b509392505050565b600082601f830112620002475762000246620000e3565b5b815162000259848260208601620001e4565b91505092915050565b6000819050919050565b620002778162000262565b81146200028357600080fd5b50565b60008151905062000297816200026c565b92915050565b60008060008060008060c08789031215620002bd57620002bc620000d9565b5b600087015167ffffffffffffffff811115620002de57620002dd620000de565b5b620002ec89828a016200022f565b965050602087015167ffffffffffffffff81111562000310576200030f620000de565b5b6200031e89828a016200022f565b95505060406200033189828a0162000286565b94505060606200034489828a0162000286565b93505060806200035789828a0162000286565b92505060a087015167ffffffffffffffff8111156200037b576200037a620000de565b5b6200038989828a016200022f565b9150509295509295509295565b600081519050919050565b7f4e487b7100000000000000000000000000000000000000000000000000000000600052602260045260246000fd5b60006002820490506001821680620003e957607f821691505b602082108103620003ff57620003fe620003a1565b5b50919050565b60008190508160005260206000209050919050565b60006020601f8301049050919050565b600082821b905092915050565b600060088302620004697fffffffffffffffffffffffffffffffffffffffffffffffffffffffffffffffff826200042a565b6200047586836200042a565b95508019841693508086168417925050509392505050565b6000819050919050565b6000620004b8620004b2620004ac8462000262565b6200048d565b62000262565b9050919050565b6000819050919050565b620004d48362000497565b620004ec620004e382620004bf565b84845462000437565b825550505050565b600090565b62000503620004f4565b62000510818484620004c9565b505050565b5b8181101562000538576200052c600082620004f9565b60018101905062000516565b5050565b601f8211156200058757620005518162000405565b6200055c846200041a565b810160208510156200056c578190505b620005846200057b856200041a565b83018262000515565b50505b505050565b600082821c905092915050565b6000620005ac600019846008026200058c565b1980831691505092915050565b6000620005c7838362000599565b9150826002028217905092915050565b620005e28262000396565b67ffffffffffffffff811115620005fe57620005fd620000fe565b5b6200060a8254620003d0565b620006178282856200053c565b600060209050601f8311600181146200064f57600084156200063a578287015190505b620006468582620005b9565b865550620006b6565b601f1984166200065f8662000405565b60005b82811015620006895784890151825560018201915060208501945060208101905062000662565b86831015620006a95784890151620006a5601f89168262000599565b8355505b6001600288020188555050505b505050505050565b61052a80620006ce6000396000f3fe608060405234801561001057600080fd5b506004361061007d5760003560e01c8063686690e61161005b578063686690e6146100dc578063a7cc53f5146100fa578063dbd0e1b614610118578063f0141d84146101365761007d565b80630115949c1461008257806317d7de7c146100a05780631a092541146100be575b600080fd5b61008a610154565b604051610097919061036b565b60405180910390f35b6100a861015e565b6040516100b59190610416565b60405180910390f35b6100c66101f0565b6040516100d39190610416565b60405180910390f35b6100e4610282565b6040516100f19190610416565b60405180910390f35b610102610314565b60405161010f919061036b565b60405180910390f35b61012061031e565b60405161012d9190610479565b60405180910390f35b61013e610348565b60405161014b919061036b565b60405180910390f35b6000600554905090565b60606002805461016d906104c3565b80601f0160208091040260200160405190810160405280929190818152602001828054610199906104c3565b80156101e65780601f106101bb576101008083540402835291602001916101e6565b820191906000526020600020905b8154815290600101906020018083116101c957829003601f168201915b5050505050905090565b6060600680546101ff906104c3565b80601f016020809104026020016040519081016040528092919081815260200182805461022b906104c3565b80156102785780601f1061024d57610100808354040283529160200191610278565b820191906000526020600020905b81548152906001019060200180831161025b57829003601f168201915b5050505050905090565b606060008054610291906104c3565b80601f01602080910402602001604051908101604052809291908181526020018280546102bd906104c3565b801561030a5780601f106102df5761010080835404028352916020019161030a565b820191906000526020600020905b8154815290600101906020018083116102ed57829003601f168201915b5050505050905090565b6000600354905090565b6000600160009054906101000a900473ffffffffffffffffffffffffffffffffffffffff16905090565b6000600454905090565b6000819050919050565b61036581610352565b82525050565b6000602082019050610380600083018461035c565b92915050565b600081519050919050565b600082825260208201905092915050565b60005b838110156103c05780820151818401526020810190506103a5565b60008484015250505050565b6000601f19601f8301169050919050565b60006103e882610386565b6103f28185610391565b93506104028185602086016103a2565b61040b816103cc565b840191505092915050565b6000602082019050818103600083015261043081846103dd565b905092915050565b600073ffffffffffffffffffffffffffffffffffffffff82169050919050565b600061046382610438565b9050919050565b61047381610458565b82525050565b600060208201905061048e600083018461046a565b92915050565b7f4e487b7100000000000000000000000000000000000000000000000000000000600052602260045260246000fd5b600060028204905060018216806104db57607f821691505b6020821081036104ee576104ed610494565b5b5091905056fea264697066735822122020108f0841aed01b44a8f18b882671e73ed2cfacde0bd53fe2d55b8fb795c74664736f6c63430008130033",
  "immutableReferences": {},
  "source": "// SPDX-License-Identifier: UNLICENSED\n\npragma solidity 0.8.19;\n\nimport \"./interfaces/IProduct.sol\";\n\n/// @title A product contract where seller could list their items in the marketplace\n/// @author Amos Tan, Oden Peterson (COMP6452 2023T2 Group 22)\n/// @notice This contract is deployed by the seller and is used to list their products in the marketplace\ncontract Product is IProduct {\n    string sku; // stock keeping unit\n    address seller; // seller address\n    string name; // name of the product\n    uint pricePerUnit; // price in USD\n    uint decimals; // decimals for price accuracy\n    uint quantity; // quantity to buy in bulk\n    string description; // description, e.g. expiry date\n\n    /// @notice constructor to create a product\n    /// @param _sku stock keeping unit\n    /// @param _name name of the product\n    /// @param _pricePerUnit price in USD\n    /// @param _decimals decimals for price accuracy\n    /// @param _quantity quantity to sell in bulk\n    /// @param _description including expiry date\n    constructor(\n        string memory _sku,\n        string memory _name,\n        uint _pricePerUnit,\n        uint _decimals,\n        uint _quantity,\n        string memory _description\n    ) {\n        sku = _sku;\n        seller = msg.sender;\n        name = _name;\n        pricePerUnit = _pricePerUnit;\n        decimals = _decimals;\n        quantity = _quantity;\n        description = _description;\n    }\n\n    /// @notice get the sku of the product\n    /// @return sku of the product\n    function getSku() external view override returns (string memory) {\n        return sku;\n    }\n\n    /// @notice get the seller address of the product\n    /// @return the address of seller of the product\n    function getSeller() external view override returns (address) {\n        return seller;\n    }\n\n    /// @notice get the name of the product\n    /// @return the name of the product\n    function getName() external view override returns (string memory) {\n        return name;\n    }\n\n    /// @notice get the price per unit of the product\n    /// @return the price per unit of the product\n    function getPricePerUnit() external view override returns (uint) {\n        return pricePerUnit;\n    }\n\n    /// @notice get the decimals of the product to calculate the price per unit accurately\n    /// @return the decimals of the product price\n    function getDecimals() external view override returns (uint) {\n        return decimals;\n    }\n\n    /// @notice get the quantity of the product\n    /// @return the quantity of the product\n    function getQuantity() external view override returns (uint) {\n        return quantity;\n    }\n\n    /// @notice get the description of the product\n    /// @return the description of the product\n    function getDescription() external view override returns (string memory) {\n        return description;\n    }\n}\n",
  "sourcePath": "/Users/odenpetersen/Documents/Programming/blockchain-supply-chain/src/Product.sol",
  "compiler": {
    "name": "solc",
    "version": "0.8.19+commit.7dd6d404.Emscripten.clang"
  },
  "schemaVersion": "3.4.14",
  "updatedAt": "2023-07-25T00:33:59.656Z",
  "devdoc": {
    "author": "Amos Tan, Oden Peterson (COMP6452 2023T2 Group 22)",
    "kind": "dev",
    "methods": {
      "constructor": {
        "params": {
          "_decimals": "decimals for price accuracy",
          "_description": "including expiry date",
          "_name": "name of the product",
          "_pricePerUnit": "price in USD",
          "_quantity": "quantity to sell in bulk",
          "_sku": "stock keeping unit"
        }
      },
      "getDecimals()": {
        "returns": {
          "_0": "the decimals of the product price"
        }
      },
      "getDescription()": {
        "returns": {
          "_0": "the description of the product"
        }
      },
      "getName()": {
        "returns": {
          "_0": "the name of the product"
        }
      },
      "getPricePerUnit()": {
        "returns": {
          "_0": "the price per unit of the product"
        }
      },
      "getQuantity()": {
        "returns": {
          "_0": "the quantity of the product"
        }
      },
      "getSeller()": {
        "returns": {
          "_0": "the address of seller of the product"
        }
      },
      "getSku()": {
        "returns": {
          "_0": "sku of the product"
        }
      }
    },
    "title": "A product contract where seller could list their items in the marketplace",
    "version": 1
  },
  "userdoc": {
    "kind": "user",
    "methods": {
      "constructor": {
        "notice": "constructor to create a product"
      },
      "getDecimals()": {
        "notice": "get the decimals of the product to calculate the price per unit accurately"
      },
      "getDescription()": {
        "notice": "get the description of the product"
      },
      "getName()": {
        "notice": "get the name of the product"
      },
      "getPricePerUnit()": {
        "notice": "get the price per unit of the product"
      },
      "getQuantity()": {
        "notice": "get the quantity of the product"
      },
      "getSeller()": {
        "notice": "get the seller address of the product"
      },
      "getSku()": {
        "notice": "get the sku of the product"
      }
    },
    "notice": "This contract is deployed by the seller and is used to list their products in the marketplace",
    "version": 1
  }
}