{
  "contractName": "Product",
  "abi": [
    {
      "inputs": [
        {
          "internalType": "string",
          "name": "_sku",
          "type": "string"
        },
        {
          "internalType": "string",
          "name": "_name",
          "type": "string"
        },
        {
          "internalType": "uint256",
          "name": "_pricePerUnit",
          "type": "uint256"
        },
        {
          "internalType": "uint256",
          "name": "_decimals",
          "type": "uint256"
        },
        {
          "internalType": "uint256",
          "name": "_quantity",
          "type": "uint256"
        },
        {
          "internalType": "string",
          "name": "_description",
          "type": "string"
        }
      ],
      "stateMutability": "nonpayable",
      "type": "constructor"
    },
    {
      "inputs": [],
      "name": "getSku",
      "outputs": [
        {
          "internalType": "string",
          "name": "",
          "type": "string"
        }
      ],
      "stateMutability": "view",
      "type": "function"
    },
    {
      "inputs": [],
      "name": "getSeller",
      "outputs": [
        {
          "internalType": "address",
          "name": "",
          "type": "address"
        }
      ],
      "stateMutability": "view",
      "type": "function"
    },
    {
      "inputs": [],
      "name": "getName",
      "outputs": [
        {
          "internalType": "string",
          "name": "",
          "type": "string"
        }
      ],
      "stateMutability": "view",
      "type": "function"
    },
    {
      "inputs": [],
      "name": "getPricePerUnit",
      "outputs": [
        {
          "internalType": "uint256",
          "name": "",
          "type": "uint256"
        }
      ],
      "stateMutability": "view",
      "type": "function"
    },
    {
      "inputs": [],
      "name": "getDecimals",
      "outputs": [
        {
          "internalType": "uint256",
          "name": "",
          "type": "uint256"
        }
      ],
      "stateMutability": "view",
      "type": "function"
    },
    {
      "inputs": [],
      "name": "getQuantity",
      "outputs": [
        {
          "internalType": "uint256",
          "name": "",
          "type": "uint256"
        }
      ],
      "stateMutability": "view",
      "type": "function"
    },
    {
      "inputs": [],
      "name": "getDescription",
      "outputs": [
        {
          "internalType": "string",
          "name": "",
          "type": "string"
        }
      ],
      "stateMutability": "view",
      "type": "function"
    }
  ],
  "bytecode": "0x608060405234801562000010575f80fd5b5060405162000ba738038062000ba7833981810160405281019062000036919062000289565b855f9081620000469190620005ac565b503360015f6101000a81548173ffffffffffffffffffffffffffffffffffffffff021916908373ffffffffffffffffffffffffffffffffffffffff1602179055508460029081620000989190620005ac565b508360038190555082600481905550816005819055508060069081620000bf9190620005ac565b5050505050505062000690565b5f604051905090565b5f80fd5b5f80fd5b5f80fd5b5f80fd5b5f601f19601f8301169050919050565b7f4e487b71000000000000000000000000000000000000000000000000000000005f52604160045260245ffd5b6200012d82620000e5565b810181811067ffffffffffffffff821117156200014f576200014e620000f5565b5b80604052505050565b5f62000163620000cc565b905062000171828262000122565b919050565b5f67ffffffffffffffff821115620001935762000192620000f5565b5b6200019e82620000e5565b9050602081019050919050565b5f5b83811015620001ca578082015181840152602081019050620001ad565b5f8484015250505050565b5f620001eb620001e58462000176565b62000158565b9050828152602081018484840111156200020a5762000209620000e1565b5b62000217848285620001ab565b509392505050565b5f82601f830112620002365762000235620000dd565b5b815162000248848260208601620001d5565b91505092915050565b5f819050919050565b620002658162000251565b811462000270575f80fd5b50565b5f8151905062000283816200025a565b92915050565b5f805f805f8060c08789031215620002a657620002a5620000d5565b5b5f87015167ffffffffffffffff811115620002c657620002c5620000d9565b5b620002d489828a016200021f565b965050602087015167ffffffffffffffff811115620002f857620002f7620000d9565b5b6200030689828a016200021f565b95505060406200031989828a0162000273565b94505060606200032c89828a0162000273565b93505060806200033f89828a0162000273565b92505060a087015167ffffffffffffffff811115620003635762000362620000d9565b5b6200037189828a016200021f565b9150509295509295509295565b5f81519050919050565b7f4e487b71000000000000000000000000000000000000000000000000000000005f52602260045260245ffd5b5f6002820490506001821680620003cd57607f821691505b602082108103620003e357620003e262000388565b5b50919050565b5f819050815f5260205f209050919050565b5f6020601f8301049050919050565b5f82821b905092915050565b5f60088302620004477fffffffffffffffffffffffffffffffffffffffffffffffffffffffffffffffff826200040a565b6200045386836200040a565b95508019841693508086168417925050509392505050565b5f819050919050565b5f620004946200048e620004888462000251565b6200046b565b62000251565b9050919050565b5f819050919050565b620004af8362000474565b620004c7620004be826200049b565b84845462000416565b825550505050565b5f90565b620004dd620004cf565b620004ea818484620004a4565b505050565b5b818110156200051157620005055f82620004d3565b600181019050620004f0565b5050565b601f82111562000560576200052a81620003e9565b6200053584620003fb565b8101602085101562000545578190505b6200055d6200055485620003fb565b830182620004ef565b50505b505050565b5f82821c905092915050565b5f620005825f198460080262000565565b1980831691505092915050565b5f6200059c838362000571565b9150826002028217905092915050565b620005b7826200037e565b67ffffffffffffffff811115620005d357620005d2620000f5565b5b620005df8254620003b5565b620005ec82828562000515565b5f60209050601f83116001811462000622575f84156200060d578287015190505b6200061985826200058f565b86555062000688565b601f1984166200063286620003e9565b5f5b828110156200065b5784890151825560018201915060208501945060208101905062000634565b868310156200067b578489015162000677601f89168262000571565b8355505b6001600288020188555050505b505050505050565b610509806200069e5f395ff3fe608060405234801561000f575f80fd5b506004361061007b575f3560e01c8063686690e611610059578063686690e6146100d9578063a7cc53f5146100f7578063dbd0e1b614610115578063f0141d84146101335761007b565b80630115949c1461007f57806317d7de7c1461009d5780631a092541146100bb575b5f80fd5b610087610151565b604051610094919061035b565b60405180910390f35b6100a561015a565b6040516100b291906103fe565b60405180910390f35b6100c36101ea565b6040516100d091906103fe565b60405180910390f35b6100e161027a565b6040516100ee91906103fe565b60405180910390f35b6100ff610309565b60405161010c919061035b565b60405180910390f35b61011d610312565b60405161012a919061045d565b60405180910390f35b61013b61033a565b604051610148919061035b565b60405180910390f35b5f600554905090565b606060028054610169906104a3565b80601f0160208091040260200160405190810160405280929190818152602001828054610195906104a3565b80156101e05780601f106101b7576101008083540402835291602001916101e0565b820191905f5260205f20905b8154815290600101906020018083116101c357829003601f168201915b5050505050905090565b6060600680546101f9906104a3565b80601f0160208091040260200160405190810160405280929190818152602001828054610225906104a3565b80156102705780601f1061024757610100808354040283529160200191610270565b820191905f5260205f20905b81548152906001019060200180831161025357829003601f168201915b5050505050905090565b60605f8054610288906104a3565b80601f01602080910402602001604051908101604052809291908181526020018280546102b4906104a3565b80156102ff5780601f106102d6576101008083540402835291602001916102ff565b820191905f5260205f20905b8154815290600101906020018083116102e257829003601f168201915b5050505050905090565b5f600354905090565b5f60015f9054906101000a900473ffffffffffffffffffffffffffffffffffffffff16905090565b5f600454905090565b5f819050919050565b61035581610343565b82525050565b5f60208201905061036e5f83018461034c565b92915050565b5f81519050919050565b5f82825260208201905092915050565b5f5b838110156103ab578082015181840152602081019050610390565b5f8484015250505050565b5f601f19601f8301169050919050565b5f6103d082610374565b6103da818561037e565b93506103ea81856020860161038e565b6103f3816103b6565b840191505092915050565b5f6020820190508181035f83015261041681846103c6565b905092915050565b5f73ffffffffffffffffffffffffffffffffffffffff82169050919050565b5f6104478261041e565b9050919050565b6104578161043d565b82525050565b5f6020820190506104705f83018461044e565b92915050565b7f4e487b71000000000000000000000000000000000000000000000000000000005f52602260045260245ffd5b5f60028204905060018216806104ba57607f821691505b6020821081036104cd576104cc610476565b5b5091905056fea2646970667358221220941d19f6e3ce4dbcb822a1aab7949fcf18f76a38ee95871754227001a526004364736f6c63430008150033",
  "immutableReferences": {},
  "source": "// SPDX-License-Identifier: UNLICENSED\n\npragma solidity ^0.8.0;\n\n/// @title\n/// @author\n\nimport \"./interfaces/IProduct.sol\";\n\ncontract Product is IProduct {\n    string sku; // stock keeping unit\n\n    address seller; // seller address\n    string name; // name of the product\n    uint pricePerUnit; // price in USD\n    uint decimals; // decimals for price accuracy\n    uint quantity; // quantity to buy in bulk\n    string description; // including expiry date\n\n    constructor(\n        string memory _sku,\n        string memory _name,\n        uint _pricePerUnit,\n        uint _decimals,\n        uint _quantity,\n        string memory _description\n    ) {\n        sku = _sku;\n        seller = msg.sender;\n        name = _name;\n        pricePerUnit = _pricePerUnit;\n        decimals = _decimals;\n        quantity = _quantity;\n        description = _description;\n    }\n\n    function getSku() external view override returns (string memory) {\n        return sku;\n    }\n\n    function getSeller() external view override returns (address) {\n        return seller;\n    }\n\n    function getName() external view override returns (string memory) {\n        return name;\n    }\n\n    function getPricePerUnit() external view override returns (uint) {\n        return pricePerUnit;\n    }\n\n    function getDecimals() external view override returns (uint) {\n        return decimals;\n    }\n\n    function getQuantity() external view override returns (uint) {\n        return quantity;\n    }\n\n    function getDescription() external view override returns (string memory) {\n        return description;\n    }\n}\n",
  "sourcePath": "/Users/odenpetersen/Documents/Programming/blockchain-supply-chain/contracts/Product.sol",
  "compiler": {
    "name": "solc",
    "version": "0.8.21+commit.d9974bed.Emscripten.clang"
  },
  "schemaVersion": "3.4.14",
  "updatedAt": "2023-07-22T14:53:06.783Z",
  "devdoc": {
    "kind": "dev",
    "methods": {},
    "version": 1
  },
  "userdoc": {
    "kind": "user",
    "methods": {},
    "version": 1
  }
}